:100000000C9430030C9477030C9477030C947703CF
:100010000C9477030C9477030C9477030C94770378
:100020000C9477030C9477030C944F2C0C94212D93
:100030000C9477030C9477030C9477030C94770358
:100040000C9477030C94D4270C9477030C947703C7
:100050000C9477030C9467270C9477030C94770324
:100060000C9477030C9477030C9477030C94770328
:100070000C9477030C9477030C9477030C94770318
:100080000C9477030C9477030C9477030C94770308
:100090000C9477030C9477030C9477030C947703F8
:1000A0000C9477030C9477030C947703A405A405B0
:1000B000D605D60523064106550755074C06E50625
:1000C000F606F606F507F50707080708FE0707080E
:1000D00007080708F507F5070308070807080308D6
:1000E0008E2DB52DAD2EB52DAD2E012E242EAD2E7F
:1000F0007B2E8A2E002636460027374700283848B0
:1001000000293949002A3A4A002B3B4B0126364642
:10011000012737470128384801293949012A3A4A35
:10012000012B3B4B02263646022737470228384828
:1001300000746454007565550076665600796959F7
:10014000007A6A5A007B6B5B0174645401756555D3
:100150000176665601796959017A6A5A017B6B5BAF
:1001600002746454027565550276665600A4948440
:1001700000A5958500A6968600A7978700A8988871
:1001800000A99989027B6B5B01A4948401A59585E4
:1001900001A6968601A7978701A8988801A9998941
:1001A00002796959027A6A5A002E3E4E002F3F4F5B
:1001B000003040500031415100324252003343532D
:1001C00001AC9C8C012E3E4E012F3F4F0130405020
:1001D00001314151013242520133435302A7978703
:1001E00002A89888007C6C5C007D6D5D007E6E5E70
:1001F00000817161008272620083736301AD9D8D25
:10020000017C6C5C017D6D5D017E6E5E01817161C2
:10021000018272620183736302A9998900AC9C8C8C
:1002200000AD9D8D00AE9E8E00AF9F8F00B0A09060
:1002300000B1A19101AE9E8E01AF9F8F01B0A09041
:1002400001B1A19102293949022A3A4A022B3B4BBA
:1002500029003A003B003C003D003E003F004000CA
:10026000410042004300440045004C004600350078
:100270001E001F0020002100220000002300240097
:100280002500260027005E002E002A0059001400D9
:100290001A000900130005004B001D000F00180094
:1002A0001C000D005F003000310039000400150013
:1002B000160017000A0029001000110008000C00A9
:1002C0001200600028004E005A002B001B000600A0
:1002D000070019005C000E000B00360037005D00BF
:1002E000610052000000E000E2005B000000E1005D
:1002F000E3002A002C000000280001516200500099
:1003000051004F00005C01000100010001000100EC
:10031000010001000100B200B300AF00B100145CA5
:10032000DF5C01000100010001000100010000008C
:100330000100010001000100010001000100530063
:10034000C35CC45CCA5CC65C010001004A000100D9
:100350000100010001000100010001000100010095
:10036000CD5CCB5CCC5C0100010001000100010010
:10037000010001000100010001004D000100010029
:100380000100010001000100010001000100010065
:1003900001000100A800A900000001000100010007
:1003A0000000010001000100010000000100010047
:1003B000AE00AC00AA00AB00000101010101010187
:1003C000010102020202020202020203030303030A
:1003D00003030304040404040404050505050506D9
:1003E0000606060607070707070808080809090997
:1003F000090A0A0A0B0B0B0C0C0C0D0D0D0E0E0E40
:100400000F0F0F10101111111212131314141515D0
:1004100016161717181819191A1A1B1B1C1D1D1E42
:100420001E1F202021222223242425262627282996
:10043000292A2B2C2D2D2E2F3031323233343536C4
:100440003738393A3B3C3D3E3F40414243444546C4
:100450004748494A4C4D4E4F5051535455565859A0
:100460005A5B5D5E5F616264656668696B6C6D6F47
:100470007072737577787A7B7D7E808283858788BA
:100480008A8C8E8F91939596989A9C9EA0A2A3A5F4
:10049000A7A9ABADAFB1B3B5B7BABCBEC0C2C4C6F5
:1004A000C9CBCDCFD1D4D6D8DBDDDFE2E4E7E9EBB1
:1004B000EEF0F3F5F8FAFDFF000000000000000088
:1004C000000000010204060A0F17202C3A4A5D7151
:1004D000879DB3C7DAE9F5FCFFFCF5E9DAC7B39D00
:1004E00087715D4A3A2C20170F0A060402010000AA
:1004F00000000000000000000E034E004100540008
:1005000055005200450000000E0358002D00420027
:100510004F005700530000000403090409023B0088
:10052000020100A0FA0904000001030101000921F1
:10053000110100012240000705810308000A090497
:100540000100010300000009211101000122B60091
:100550000705820320000A1201000200000008EDD6
:10056000FE261201000102000105010902A1018518
:10057000020901A1000509190129081500250195A5
:1005800008750181020501093009311581257F9522
:10059000027508810609381581257F950175088146
:1005A00006050C0A38021581257F9501750881061C
:1005B000C0C005010980A101850319012AB70015F2
:1005C0000126B700950175108100C0050C0901A135
:1005D00001850419012AA002150126A002950175C2
:1005E000108100C005010906A1018505050719E074
:1005F00029E71500250195087501810205071900F5
:1006000029EF1500250195F07501810205081901F2
:100610002905950575019102950175039101C005A4
:10062000010906A101050719E029E7150025019533
:1006300008750181029501750881010507190029D6
:10064000FF150026FF0095067508810005081901B1
:100650002905950575019102950175039101C00069
:1006600011241FBECFEFDAE0DEBFCDBF04B603FE1C
:1006700027C08091900690919106A0919206B0912A
:1006800093068730904BA740B04BD1F41092900660
:1006900010929106109292061092930614BE84B79F
:1006A000877F84BF0FB6F894A89580916000886119
:1006B00080936000109260000FBEE0E0F8E30995BF
:1006C00013E0A0E0B1E0E0E7F0E602C005900D9293
:1006D000A830B107D9F726E0A8E0B3E001C01D9229
:1006E000A039B207E1F70E9453130C9436300C94F2
:1006F000000081E00E94EE1E0C94072780E00E941B
:10070000EE1E0C94ED260E94D72581FF07C020E045
:1007100040E06FEF8DE290E00C944F18089581E077
:10072000089581E008950C94910308950C94950325
:100730001F93CF93DF9300D000D01F92CDB7DEB7C9
:1007400049835A836B8330910A0389819A813111DD
:1007500014C0662359F0222349F00E949909182FEA
:10076000682F89819A810E94420903C00E946D0905
:10077000182F69817A81812F04C00E9499096981AB
:100780007A810F900F900F900F900F90DF91CF9183
:100790001F910C94C310FC01262F4081518162816E
:1007A000738184810C94980381E00895CF93DF9343
:1007B000EC0160E00E94CB03BE01DF91CF910C946D
:1007C00096030E94CC110E945B040E94C01E0C94F0
:1007D00009120C94051208950E94E3070E94EB038E
:1007E0002FEF84E39CE0215080409040E1F700C06F
:1007F00000000C948D270F931F93CF93DF938C01F0
:1008000061E00E94CB03EC01B8010E9493038823AE
:1008100009F444C0B801CE010E943A238823F1F1C3
:10082000B801CE010E948C238823C1F1B801CE010A
:100830000E94B724882391F1B801CE010E942B2297
:10084000882361F1F8018281882309F1CB358DE598
:10085000D807C1F050F4C115FCE5DF0781F0CF3DAA
:10086000DC45A9F40E94AA0E19C0CC35EDE5DE07DF
:1008700061F0CD35DD4559F40E943B0D08C00E9462
:10088000EC030CC00E94440D02C00E94470DC80139
:10089000DF91CF911F910F910C948F0380E0DF9136
:1008A000CF911F910F91089508950C94540481E005
:1008B00008950C9457040895CF93C82F0E945504AF
:1008C0008C2F0E945904CF910895CF93DF93CDB719
:1008D000DEB72B970FB6F894DEBF0FBECDBF4F83A8
:1008E000588769877A878B8761110E946A0D9E01FC
:1008F0002F5F3F4F86E0F90111928A95E9F785E075
:10090000FE013796D90101900D928A95E1F7898110
:100910009A814C815D81452B31F09F3F31F491E00C
:100920008F3F19F403C091E001C090E090FF09C02F
:1009300049815A816B817C818D819E810E946A0CE4
:1009400005C0C9010E94D4038111F2CF2B960FB6C6
:10095000F894DEBF0FBECDBFDF91CF910895FC01AB
:10096000808191810E94DB090895CF93882309F447
:1009700050C0C82F8CEF8C0F813AD0F46C2F80912F
:100980006302909164020E944426882349F06C2FF0
:1009900080916302909164020E94CF260E948F0D85
:1009A0006C2F80916302909164020E94C4260CC057
:1009B00080E28C0F883058F4C77081E001C0880F46
:1009C000CA95EAF70E944D0DCF910C948F0DEBE57F
:1009D000EC0FE33040F4F0E0E155FD4F808190E012
:1009E000CF910C940226E8E5EC0FE73150F4F0E0EB
:1009F000EE0FFF1FEF57FD4F80819181CF910C9437
:100A00001826CD3E30F08C2F0E94E013CF910C942D
:100A1000B214CF910895882389F19CEF980F913AF1
:100A200040F4682F80916302909164020E94CF2667
:100A30000DC090E2980F983058F4877091E001C093
:100A4000990F8A95EAF7892F0E94530D0C948F0D08
:100A50009BE5980F933020F480E090E00C94022600
:100A600098E5980F973120F480E090E00C941826D8
:100A70008D3E20F00E943B140C94B21408951F93F5
:100A8000CF93DF93182FEB010E94B504209741F01C
:100A90008FE99FE00197F1F700C000002197F6CFA2
:100AA000812FDF91CF911F910C940B05893319F0A1
:100AB00060E070E002C060E570E00C943F058823C0
:100AC00021F00E944D0D0C948F0D0895882321F084
:100AD0000E94530D0C948F0D0895CF92DF92EF92E8
:100AE000FF920F931F93CF93DF937C01D62FC72FD5
:100AF000FC011281058102950F700E94220D88234E
:100B000099F0112389F08C2F807F803421F080E2CE
:100B10008D0F883048F082E00E94DF0D0E94220D88
:100B200091E0D82ED92601C0D12CCC2EC2948FE0D2
:100B3000C8228C2D90E08C30910508F0B6C1FC01E4
:100B4000EA5AFF4F0C94282F8C2F807FCF70882378
:100B500011F0C295C07F112399F0CC2309F491C103
:100B600080E28D0F883010F0D11104C08C2F0E94CC
:100B70004D0D03C08C2F0E945D0D0E948F0D81C111
:100B80008D2F0E940B05CC2309F48FC180E28D0FBD
:100B9000883010F0D11104C08C2F0E94530D03C077
:100BA0008C2F0E94630D0E948F0D7FC18C2F807F40
:100BB000CF70803211F0C295C07FDD2319F0D130A3
:100BC000C9F022C0112371F0002341F0013031F44B
:100BD0000E94700D8C2B0E94780D67C10E94700DD1
:100BE0008C2B1DC0002319F0013009F45EC10E9456
:100BF000850D25C0112321F0063008F056C10EC026
:100C0000053008F052C11BC0112361F0002331F000
:100C1000F701858180FF35C18F7085838C2F0E94FD
:100C20005F0543C1002359F0D93309F03BC1FFEF01
:100C300007EE13E0F15000401040E1F731C18C2F76
:100C40000E94660532C18C2F86958695837019F0B7
:100C5000813061F02AC1112321F08D2F9C2F9370D8
:100C600002C080E090E00E94022627C1112321F0FB
:100C70008D2F9C2F937002C080E090E00E94182678
:100C80001CC18D2F112319F00E94E01302C00E9495
:100C90003B140E94B21411C18C2F837009F047C01D
:100CA000111107C12D2F229526952770220F220F93
:100CB0006D2F6F70862F90E0A0E0B0E0022E04C090
:100CC000880F991FAA1FBB1F0A94D2F7D4FF10C028
:100CD0004FE050E060E070E004C0440F551F661F15
:100CE000771F2A95D2F7409550956095709503C06F
:100CF00040E050E0BA01C695C695C3708A019B01D9
:100D0000082B192B2A2B3B2BC901B801C23049F003
:100D100058F4C13019F00E945808CBC00E94460810
:100D2000C8C00E946A08C5C00E944408C2C01123FE
:100D300019F08C2F817001C08695882309F4B9C001
:100D40002D2F229526952770220F220F6D2F6F7061
:100D5000862F90E0A0E0B0E0022E04C0880F991F1B
:100D6000AA1FBB1F0A94D2F7D4FF10C04FE050E077
:100D700060E070E004C0440F551F661F771F2A957E
:100D8000D2F7409550956095709503C040E050E0D3
:100D9000BA01C695C695C3708A019B01082B192B11
:100DA0002A2B3B2BC901B801C23049F058F4C1309D
:100DB00019F00E941D097DC00E940B097AC00E9493
:100DC0002F0977C00E947E0874C0CF70112339F0BC
:100DD0008C2F0E94A4088D2F0E945F056AC08D2F62
:100DE0000E9466058C2F0E94C50863C0D23F01F1A6
:100DF00028F4D03F41F0D13FA1F03FC0D33FF9F0FC
:100E0000D43F39F13AC0112341F0053008F04DC00C
:100E10008C2F8F710E94EA0848C0063008F045C048
:100E2000F7CF112339F08C2F8F710E94A4083DC099
:100E30001123C9F38C2F8F710E94C50836C011236E
:100E400029F08C2F8F710E948F082FC00E948A0872
:100E50002CC0112349F0CF718C2F0E94A40863E0AD
:100E60008C2F0E94C40D21C081E00E94DF0D023052
:100E7000E0F082E00E94DF0D18C0112331F0002362
:100E800091F28D2F0E94B50410C0002399F2D9333E
:100E900049F41FEF27EE33E0115020403040E1F7D6
:100EA00000C000008D2F0E940B0588EF8C0D843050
:100EB00020F40E94CB250E945C04DD20C9F00E9432
:100EC0001E0D80FD15C0F70112820E94180D0E94B0
:100ED000A408C7010E9499070E94180DDF91CF91C5
:100EE0001F910F91FF90EF90DF90CF900C94C50869
:100EF000DF91CF911F910F91FF90EF90DF90CF90F6
:100F000008950F931F93CF93DF93EC01688179814C
:100F10008A810E94E6098C010E9441090E943208E0
:100F2000B801CE010E946D05DF91CF911F910F9105
:100F30000895CF93DF93EC01988189812B813C81C7
:100F4000232B31F08F3F31F481E09F3F19F403C030
:100F500081E001C080E080FD19C0CE010E94FB034A
:100F600081110CC00E94220D882381F08A81882380
:100F700069F082E0DF91CF910C94DF0DCE010E94E9
:100F80008107CE01DF91CF910C94D603DF91CF91F1
:100F9000089580E090E00E94022680E090E00E94A8
:100FA00018260E946A0D0E946D0D0E948F0D0E94EE
:100FB000E3150C94B21480916302909164020E9434
:100FC000DA260C94C9070E945A0D0C94DB07E92F0E
:100FD000E295EF704E2F50E0FA013297EE30F105B6
:100FE000B0F4EE59FF4F0C94282F803F91F018F485
:100FF000883E68F40EC0843F51F40BC0883E48F030
:10100000813F29F406C093FB882780F9089580E08A
:10101000089581E00895FC01808191810E94DB099F
:101020000E94E7070895CF93DF9300D000D01F926E
:10103000CDB7DEB70F900F900F900F900F90DF910C
:10104000CF910895CF93DF9300D000D000D0CDB7DB
:10105000DEB726960FB6F894DEBF0FBECDBFDF9188
:10106000CF910895089508950C9433080C94340892
:101070000E94360860934B0370934C0380934D039A
:1010800090934E030C94C9070C9438080F931F9348
:1010900000914B0310914C0320914D0330914E036E
:1010A000602B712B822B932B1F910F910C9438087E
:1010B0000F931F9300914B0310914C0320914D030C
:1010C00030914E0360237123822393231F910F914C
:1010D0000C9438080F931F9300914B0310914C030D
:1010E00020914D0330914E0360277127822793276B
:1010F0001F910F910C9438080C9433080E947C08BF
:1011000060934703709348038093490390934A0385
:101110000C94C90760E070E0CB010C947E080F933B
:101120001F9341E050E060E070E08A019B0104C041
:10113000000F111F221F331F8A95D2F7C901B80172
:101140001F910F910C947E080F931F9341E050E084
:1011500060E070E004C0440F551F661F771F8A953A
:10116000D2F78091470390914803A0914903B09131
:101170004A038A019B01082B192B2A2B3B2BC901FF
:10118000B8011F910F910C947E080F931F9341E0BB
:1011900050E060E070E004C0440F551F661F771FE9
:1011A0008A95D2F740955095609570958091470348
:1011B00090914803A0914903B0914A038A019B0191
:1011C000082319232A233B23C901B8011F910F913A
:1011D0000C947E080F931F9341E050E060E070E0B4
:1011E00004C0440F551F661F771F8A95D2F7809160
:1011F000470390914803A0914903B0914A038A01A3
:101200009B01082719272A273B27C901B8011F91ED
:101210000F910C947E080F931F9300914703109138
:1012200048032091490330914A03602B712B822B94
:10123000932B1F910F910C947E080F931F93009195
:101240004703109148032091490330914A036023DA
:101250007123822393231F910F910C947E080F9387
:101260001F93009147031091480320914903309147
:101270004A0360277127822793271F910F910C94AF
:101280007E0808952FE0929F800D1124E82FE695A7
:10129000E695E695877051E001C0550F8A95EAF70B
:1012A00085E0E89FF0011124E55FFC4F20E030E08D
:1012B00070E04081CB01022E02C0969587950A947A
:1012C000E2F78170819584278523842781932F5F9E
:1012D0003F4F2530310569F708952FE0929F800D2B
:1012E0001124682F669566956695982F977085E00E
:1012F000689FB001112440E050E080E0FB01E40F62
:10130000F51FE55FFC4F208130E0092E02C03695C5
:1013100027950A94E2F721703327042E01C0220F8B
:101320000A94EAF7822B4F5F5F4F4530510531F742
:101330000895BF92CF92DF92EF92FF920F931F9387
:10134000CF93DF938C01C0904703D0904803E09087
:101350004903F0904A0380914B0390914C03A09174
:101360004D03B0914E03C82AD92AEA2AFB2ACFE1BD
:10137000D0E0D701C6010C2E04C0B695A79597956D
:1013800087950A94D2F780FD04C0219790F7B12C7D
:1013900007C0BC2EB8018C2F0E94D6100197A9F36C
:1013A0008B2DDF91CF911F910F91FF90EF90DF90E8
:1013B000CF90BF900895CF93DF93EC010E949909DD
:1013C000BE010E94D610DF91CF9108951F93CF9355
:1013D000DF93EB0190910A03992321F0CB010E9446
:1013E000DB0913C0882349F0CB010E949909182F0B
:1013F000682FCE010E94420904C0CB010E946D09F2
:10140000182FBE01812F0E94D610DF91CF911F911E
:1014100008951F93CF93DF93C0914F0316E08091FF
:101420005003C81799F0D0E01C9FF0011D9FF00DEC
:101430001124EF5AFC4F4081518162817381848174
:1014400095810E9422082196C770E9CFDF91CF9144
:101450001F9108954091810350918203609183030D
:101460007091840380918503909186030C942208E7
:101470000F931F93CF93DF938091860382958F7094
:1014800009F05DC080918303882309F458C08091DE
:101490004F03109150036091810370918203C091BA
:1014A0008403D091850391E06F3F09F090E0292FEC
:1014B00006E0811709F443C0209721F07F3F21F017
:1014C00030E003C031E001C0322F90E030FD34C085
:1014D000089FF001099FF00D1124DF01AF5ABC4FA6
:1014E00011963C911197371327C03C91361324C0B5
:1014F00012963C91129731111FC013964D915C9139
:1015000014974C1B5D0B483C5105B0F48091860349
:101510008F70806180938603EA5AFC4F80818F70C0
:101520008061808381E893E00E949907DF91CF91E9
:101530001F910F910C94090A01968770BACFDF9121
:10154000CF911F910F9108959F92AF92BF92CF922A
:10155000DF92EF92FF920F931F93CF93DF93CDB75C
:10156000DEB761970FB6F894DEBF0FBECDBF8C011A
:1015700085E0F801DE011D9601900D928A95E1F754
:10158000F801E280909181036091820320918403AD
:10159000309185032115310531F06F3F31F481E041
:1015A0009F3F19F403C081E001C080E0F82FF17083
:1015B0009F2E80FD3FC1F80140815181A380B480FE
:1015C00081E8C82E83E0D82EF0908303F501E21B5A
:1015D000F30BFF2009F4D9C080918603E83CF105A4
:1015E00008F095C0282F207F09F052C0561313C071
:1015F000491311C0FE2CE1100EC08F7080618093E2
:1016000086030E942A0AC6010E94990780918603D8
:10161000F80185834CC1AB2831F05F3F31F481E0A4
:101620004F3F19F403C081E001C080E080FD03C09A
:1016300081E08E2502C080E090E0F82FF170FF2E4F
:1016400080FF1CC080914F032091500336E0821729
:1016500009F40BC190E0389FF001399FF00D11247F
:10166000EF5AFC4F6181561306C06081461303C0D8
:101670006281E61203C001968770E9CFFE2CEE204E
:1016800009F415C18091860381608093860354C05C
:10169000561306C0491304C0E11002C0F80199C0F6
:1016A000C8010E940B08882361F1EE2051F12091BE
:1016B0008603822F82958F7090E0029774F080915C
:1016C00081039091820398878F831986BB86AA86AF
:1016D0002C87CE0107960E94990786E0F801A1E8C1
:1016E000B3E001900D928A95E1F70E94380A0E94BA
:1016F0002A0A0AC0561711F1C8010E940B0881116D
:101700002CC0C8010E949907FF24F394D0C0282F51
:10171000207F81F77A2DB98AA88A6E2D89890E9447
:10172000130881E893E00E94990786E0F601119280
:101730008A95E9F70E942A0AF12CB9C04913DCCF37
:10174000E110DACFF8018583C8010E94990786E08D
:10175000F60111928A95E9F7AAC0EE2091F2209144
:101760008603822F82958F7090E002970CF4B5CF9C
:1017700080918103909182039A8389831B82BD8229
:10178000AC822E83CE010196A6CFE83CF10508F08D
:1017900044C0FE2CEE2009F4B4CF561330C04913D8
:1017A0002EC02091860320FD21C0822F82958F704C
:1017B000482F50E041155105C9F0F80125834F30FD
:1017C000510541F08F5F982F9295907F822F8F70F7
:1017D000892B8583C8010E94990786E0F801A1E85A
:1017E000B3E001900D928A95E1F73CC086E0F801E4
:1017F000A1E8B3E001900D928A95E1F758C0C801C5
:101800000E940B08811169CF8091860381608093CB
:101810008603C8010E9499074AC07A2DB98AA88A0E
:101820006E2D89890E94130886E0F60111928A952F
:10183000E9F718C0EE2009F464CFC8010E940B0834
:10184000F82E882309F45DCF86E0F801A1E8B3E023
:1018500001900D928A95E1F781E893E00E94AF0430
:101860000E94380A0E942A0A22C04D875E878D8511
:101870009E850E94DB09292F22952F70223028F4A3
:101880009F7039F0811105C00BC0243028F49F707F
:1018900049F4805E883020F0C8010E9499079F2C8F
:1018A000F92C05C0F8019581907F99F7F9CF8F2D1C
:1018B00061960FB6F894DEBF0FBECDBFDF91CF911A
:1018C0001F910F91FF90EF90DF90CF90BF90AF905E
:1018D0009F9008951F93CF93DF93CDB7DEB72C97DA
:1018E0000FB6F894DEBF0FBECDBF4F835887698710
:1018F0007A878B879C87CE0107960E94A40A88234B
:10190000D1F09F8188852A853B85232B31F08F3F3D
:1019100031F481E09F3F19F403C081E001C080E011
:1019200080FD47C04F81588569857A858B859C8568
:101930000E9422083EC086E0FE013796DE01119625
:1019400001900D928A95E1F7FF81E8856A857B8594
:101950006115710531F0EF3F31F481E0FF3F19F47B
:1019600003C081E001C080E080FD23C020915003CE
:1019700030E0C90101968770992740914F0350E0EC
:1019800084179507F1F1F983EA837D836C8396E0F0
:10199000929FD001939FB00D1124AF5ABC4FFE010E
:1019A000319601900D929A95E1F7809350030E9431
:1019B000090A16E080914F0390915003891771F145
:1019C000189FC00111248F5A9C4F0E94A40A88239B
:1019D00029F1E0914F031E9FF0011124EF5AFC4FB3
:1019E0004081518162817381848195810E942208A6
:1019F00080914F0390E001968770992780934F0361
:101A0000D9CF0E94E3071092500310924F03E1E8F0
:101A1000F3E086E0DF011D928A95E9F72C960FB678
:101A2000F894DEBF0FBECDBFDF91CF911F91089517
:101A30008091870385958595859508958091870385
:101A40008770089590918703977081E009F480E092
:101A5000089590916F0492FB222720F9281751F0E6
:101A600080FB92F990936F0480916E0490916F04C3
:101A70000C94260E089580916F0482FB882780F9CC
:101A800091E089270C94290D81E00C94290D80E0C8
:101A90000C94290D8091AB0308959091AB03892B91
:101AA0008093AB03089580959091AB038923809335
:101AB000AB0308951092AB0308959091AA03892B6C
:101AC0008093AA03089580959091AA038923809317
:101AD000AA0308951092AA0308951092A9030895E5
:101AE00080918803089508950C94730D0C94740DDF
:101AF00090916F0492FD08C090918803981721F08F
:101B0000809388030C94760D089580918803882330
:101B100029F01092880380E00C94760D0895E091EE
:101B20006302F09164028091AB038083E0916302D1
:101B3000F091640290818091AA03892B8083E091C7
:101B40006302F091640290818091A903892B8083C4
:101B500080918803882381F0E0916302F091640210
:101B60009081892B808380916302909164020E940E
:101B70002E2681110E94850D80916302909164024E
:101B80000C94DA250C94730D90916F0492FD10C0A3
:101B900098E0899F90011124262B209387030E94AF
:101BA000A408809187038595859585950C94C20D31
:101BB0000C94A4081092870380E00C94C20D20912D
:101BC00087038095822380938703982F977041F431
:101BD00030E0482F082E000C550B2417350721F450
:101BE00090916F0492FF07C08595859585950E9419
:101BF000C5080C94DA0D08956FEF7FEF80E090E058
:101C00000C940E3080E090E00E94DA2F21E0893EB3
:101C10009E4F09F020E0822F089582E090E00C941E
:101C2000D22F83E090E00C94D22FCF9384E090E009
:101C30000E94D22FC82F82E290E00E94D22F2C2F38
:101C400030E0A901582BCA01CF910895CF93C92F35
:101C5000682F84E090E00E94F02F6C2F82E290E0E9
:101C6000CF910C94F02FAB01BC018FE090E00C946D
:101C70000230AB01BC0183E190E00C94023060E0E3
:101C800070E0CB010C94390E60E070E0CB010E9453
:101C9000330E0C943F0E69EE7EEF80E090E00E94E0
:101CA0000E3060E082E090E00E94F02F60E083E080
:101CB00090E00E94F02F10924B0310924C03109270
:101CC0004D0310924E0360E084E090E00E94F02FFC
:101CD00060E082E290E00E94F02F60E085E090E01A
:101CE0000E94F02F60E086E090E00E94F02F6FEFFE
:101CF00087E090E00E94F02F40E050E0BA0188E0D9
:101D000090E00E94023060E08DE090E00E94F02FB1
:101D100040E050E0BA0188E190E00E94023060E0CB
:101D200087E190E00E94F02F40E050E0BA018CE1A2
:101D300090E00E94023060E070E080E290E00E945B
:101D40000E3040E050E0BA0188E190E00E9402309D
:101D50000C94440E0C944B0E682F8EE090E00C9483
:101D6000F02F0E9430276093BD037093BE038093D1
:101D7000BF039093C0036093B9037093BA03809339
:101D8000BB039093BC03089585B7806885BF85B772
:101D9000806885BF089581E008950C94CB0E089566
:101DA0000C94CF0E0C94CF0E0C94D20E0C94CF0E3C
:101DB0000C94D60E0C94CF0E0E94C40E82EB91E1CF
:101DC0000E94B1270E94DA0E0C94D80E0E94D00E09
:101DD0000C94CF0E0E941B270E94BA120C94D40EB2
:101DE0006F927F928F929F92AF92BF92CF92DF922B
:101DF000EF92FF920F931F93CF93DF93CDB7DEB790
:101E00002A970FB6F894DEBF0FBECDBF0E94CD1249
:101E100081110E94B10E3DEA832E33E0932E00E043
:101E200010E0E02E802F0E94F0115C01F40161901F
:101E300071904F016826792661147104B1F40F5F27
:101E40001F4F0630110569F78FEF89838A831B8244
:101E50000E9424278160782F9D838C8349815A8139
:101E60006B818D810E94650443C08091C10381FD17
:101E70000E94F911F12CCC24C394D12CC3018C21E4
:101E80009D21892B71F10E94CD0EAC20BD208823AD
:101E9000A1F0FE82EF8281E0A114B10409F480E098
:101EA00088870E9424278160782F9A8789874E81AE
:101EB0005F8168858A850E946504000F111FF80103
:101EC000E355FC4F80819181C826D926D182C082FA
:101ED00041E0AB2809F440E06F2D8E2D0E94521C8A
:101EE00007C0F394CC0CDD1CFFE0FF12C7CFA7CFD7
:101EF0000E94FF1D0E94D0140E94CB259091AC033C
:101F00008917D1F00E94CB258093AC032A960FB697
:101F1000F894DEBF0FBECDBFDF91CF911F910F911F
:101F2000FF90EF90DF90CF90BF90AF909F908F90F9
:101F30007F906F900C945C042A960FB6F894DEBFE5
:101F40000FBECDBFDF91CF911F910F91FF90EF900A
:101F5000DF90CF90BF90AF909F908F907F906F90C9
:101F60000895CF93DF930E94DB10EC01811521E5EA
:101F7000920708F045C0811530E5930708F094C03A
:101F8000883E910528F5803E910508F0F8C0883A12
:101F9000910570F4853A910508F07CC08130910577
:101FA00009F475C008F4E8C0049708F0E8C0E4C07C
:101FB0008F3B910508F0E0C0C85AD0E0CC0FDD1F80
:101FC000CE54DD4F0990D881C02DCE019464D8C085
:101FD000811540E2940758F4811551E0950708F007
:101FE000CEC08D3E910508F4C7C09065C9C0C1152B
:101FF00080E4D80708F4C0C0DF70CE01906AC0C08A
:10200000811525E59207A8F4811534E5930708F0BA
:1020100095C0811543E5940708F07BC0811552E512
:10202000950708F061C0D82FCC27CE01816F906A48
:10203000A7C0C11589E5D807A0F4C11528E5D207C6
:1020400008F082C0C11536E5D30708F095C08C2F83
:102050000E946F118F7190E0D82FCC27CE01906233
:102060008FC0C1154AE5D40708F474C0CE0190565C
:102070008115904208F080C08D2F8F710E946F11E2
:10208000DD27D0628F71AE01582BCA0179C081E083
:1020900090E076C0C55AD0E0C052DD4F8881C82F8D
:1020A000D0E0CE0190646CC074E0969587957A95E7
:1020B000E1F7282F23703C2F337081E090E002C0BD
:1020C000880F991F3A95E2F79C68AC01522B9A0150
:1020D0009C2F9F709695969550E2959FE001112454
:1020E000C9018C2B9D2B4CC08370992721E030E0D7
:1020F00002C0220F331F8A95E2F79C2F9695969582
:1021000080E2989FE0011124C22BD32BCE019C6862
:1021100037C08370992721E030E002C0220F331FBF
:102120008A95E2F79C2F9695969540E2949FE00160
:102130001124C22BD32BCE019A6822C0D82FCC27D2
:10214000CE01846F906A1CC0DC2FCC27CE01806F3B
:10215000906A16C08C2F8F700E946F1194E0D695F4
:10216000C7959A95E1F7CF70D0E0DC2FCC27D069E6
:102170009E01282BC90104C080E090E001C0CE017F
:10218000DF91CF9108952AE5829FC0011124FC01BF
:102190002FE0729FE00DF11D1124E60FF11DEE0FEF
:1021A000FF1FE05BFD4F8591949108950E94C3103D
:1021B0000E94B10F08958238910569F1B0F481331E
:1021C000910509F46DC048F48932910509F463C0A2
:1021D0008A32910509F469C008958533910509F49F
:1021E00055C089339105B9F00895833E910569F191
:1021F00038F4803E9105B1F0823E910509F10895D1
:10220000863E9105A9F1873E9105B9F1843E91057D
:1022100009F064C023C020916E0420FD4FC021FD51
:102220004DC0089580916E0480FD44C080916F047C
:1022300080FF44C080916E0484FD42C083EE4DC097
:1022400080916E0482FF38C0F5CF80916E0482FDCC
:1022500033C080916F0480FD31C0ECCF80916F045A
:1022600081FF32C080916E0484FD2AC087EE35C0A4
:1022700080916E0483FF26C0F5CF80916E0483FDAC
:1022800021C080916F0481FD1FC0ECCF80916E044E
:1022900085FD1CC01DC080916E0485FD19C016C04F
:1022A00080916E0486FD16C017C080916E0486FD75
:1022B00013C010C089E311C082EE0FC080EE0DC0C4
:1022C00080E00BC086EE09C084EE07C089E205C03D
:1022D00085E303C08AE201C081E390E00895909114
:1022E0006E0492FF0DC0282F2871283019F4877FC3
:1022F000846006C0282F2471243011F48B7F8860FD
:1023000093FF0DC0282F2871283119F4877E84612E
:1023100006C0282F2471243111F48B7E886120910E
:102320006F0420FF0DC0382F3871383019F4877FC3
:10233000816006C0382F3171313011F48E7F886092
:1023400021FF0DC0282F2871283119F4877E816163
:1023500006C0282F2171213111F48E7E886194FDF1
:10236000877E089580E008950C94FC0D0E94CD12A4
:102370008FEB9DE50197F1F700C000000E94CD12A0
:1023800080E00E94F01180FF04C00E94B4110C9400
:102390008D2708950C94B6110E94020E811102C07F
:1023A0000E94AA0E0E940D0E8093C1030E94150E7A
:1023B00090936F0480936E040E94CA110E94110EC4
:1023C000682F70E080E090E00E944408609147032D
:1023D000709148038091490390914A030C947C08C2
:1023E000E82FF0E0EE0FFF1FE458FB4F8081918152
:1023F0000895089580EA8A95F1F7089500C0089538
:102400000C94FA1108950C9402120C9403120C947B
:1024100002120C940712F894E82FE295EF70F0E0A6
:1024200031A1282F2F7081E090E001C0880F2A95FC
:10243000EAF7982F9095932391A392A1892B82A3D9
:10244000789408950F931F93CF93DF93C2EFD2E058
:1024500089918F3F11F00E940B1282E0C83FD8078C
:10246000B9F7C3EED2E002EF12E089918F3F11F08D
:102470000E940B120C171D07C1F7DF91CF911F911E
:102480000F910895AF92BF92CF92DF92EF92FF9299
:102490000F931F93CF93DF938C01C62FD0E0CE0113
:1024A0008E509D4F6C01DC019C919F3F09F457C0F9
:1024B000B62EF894E92FE295EF70F0E081A19F70BD
:1024C00021E030E001C0220F9A95EAF7822B81A328
:1024D00082A12095282322A378940E94FE11E3EE86
:1024E000F2E020E030E0E12CF12C41E050E081917D
:1024F0008F3FC1F0A82FA295AF70B0E090966C917D
:1025000070E08F70DB0102C0B595A7958A95E2F760
:10251000A0FD08C0CA01022E02C0880F991F0A94AC
:10252000E2F702C080E090E0E82AF92A2F5F3F4FEF
:102530002F303105E1F6F60180818F3F11F00E94C6
:102540000B1261E0E114F10409F460E08B2D0E94AC
:102550000012CC0FDD1FC00FD11FF982E882DF917E
:10256000CF911F910F91FF90EF90DF90CF90BF9090
:10257000AF9008950E942212E0E7F4E0ACE7B4E0E7
:10258000119211921D921D9284E0EC37F807C1F769
:1025900086E00E9418130C94E103FF920F931F939F
:1025A000CF93DF93CDB7DEB72C970FB6F894DEBF8D
:1025B0000FBECDBF8E010F5F1F4F8CE0F80111924F
:1025C0008A95E9F7F12C6F2DC8010E944212F3940D
:1025D000F6E0FF12F8CF4CE050E0B80180E794E05D
:1025E0000E94AC2FFF24F394009709F4F12C892B5F
:1025F00041F08CE0F801A0E7B4E001900D928A95DB
:10260000E1F72F2D46E06CE774E080E794E00E944C
:1026100019130E94E9038F2D2C960FB6F894DEBF94
:102620000FBECDBFDF91CF911F910F91FF90089505
:102630000895FF920F931F93CF93DF93F82E092FE6
:10264000162FD72FC42F222349F081E08093C40393
:102650000E9424279093C3038093C2038091C403F4
:102660008823D9F08091C2039091C3030E943C2734
:10267000039798F0EF2DF02FA12FBD2F80E090E071
:102680004C2F50E08417950734F4219131912D930C
:102690003D930196F7CF1092C403DF91CF911F9124
:1026A0000F91FF9008950E94EC260E948A290E94B3
:1026B000A3290E94B7290E94E60EFBCF8091CB038D
:1026C00080FF0BC060916A0285E0689FB001112411
:1026D00075956795759567952BC081FF09C06091C9
:1026E0006A0285E0689FB00111247595679520C046
:1026F00082FF07C060916A0285E0689FB0011124E3
:1027000017C09091CA039923D1F06091690296177E
:1027100088F720916A0285E0289F90011124929FFA
:10272000A001939F500D112470E0CA010E94F52E64
:102730006038710540F46115710519F406C065E053
:1027400070E0862F08958FE7089581E008958091C5
:10275000CB0380FF08C06091660270E075956795B5
:102760007595679521C081FF06C06091660270E093
:102770007595679519C082FF04C06091660270E08C
:1027800010C09091C903992399F060916502961742
:10279000A0F780916602899FC001112470E00E9419
:1027A000F52E6038710540F46115710519F406C005
:1027B00061E070E0862F08958FE7089581E0089525
:1027C0008D3E21F40E945E13819504C08E3E29F453
:1027D0000E945E138093CF0308958F3E21F40E94E0
:1027E0005E13819504C0803F29F40E945E1380939C
:1027F000CE030895893F19F40E94A71305C08A3FAC
:1028000031F40E94A71381958093D00308958B3FE4
:1028100021F40E94A713819504C08C3F29F40E94E3
:10282000A7138093D10308959FE0980F983078F410
:1028300021E030E0A90102C0440F551F9A95E2F74C
:10284000CA019091CD03892B8093CD0308958D3FCC
:1028500021F48091CB0381600BC08E3F21F48091E5
:10286000CB03826005C08F3F29F48091CB03846045
:102870008093CB0308958D3E39F49091CF0397FF59
:1028800035C01092CF0359C08E3E29F49091CF03EA
:102890001916BCF32BC09091CE038F3E29F497FFFD
:1028A00025C01092CE0349C0803F19F41916CCF30D
:1028B0001DC09091D003893F29F41916BCF41092E1
:1028C000D0033BC08A3F19F497FF10C0F8CF8B3F6D
:1028D00039F49091D10397FF09C01092D1032DC014
:1028E0008C3F21F49091D1031916BCF39FE0980F0F
:1028F000983080F421E030E0A90102C0440F551F58
:102900009A95E2F7CA0180959091CD03892380932F
:10291000CD0313C08D3F21F48091CB038E7F0BC07C
:102920008E3F21F48091CB038D7F05C08F3F29F42A
:102930008091CB038B7F8093CB038091CE03811159
:1029400006C08091CF03811102C01092CA0380910A
:10295000D003811106C08091D103811102C0109271
:10296000C90308950E9424272091CE03211104C099
:102970002091CF03222321F09093C8038093C703B3
:102980002091D003211104C02091D103222321F0F2
:102990009093C6038093C5038CEC93E00C94F425CC
:1029A000EF92FF920F931F93CF93DF9300D000D04D
:1029B00000D0CDB7DEB786E0ECECF3E0DE01119697
:1029C00001900D928A95E1F7E090CE03F090CF034D
:1029D0000091D0031091D1031092CE031092CF0337
:1029E0001092D0031092D103E11003C0FF2009F42C
:1029F0005DC08091C7039091C8030E943C27AC0141
:102A00009091CA03992339F020916B0230E024178A
:102A1000350758F04BC020916C028AE0289F900146
:102A200011242417350718F041C09F3F19F09F5F0C
:102A30009093CA03EE2061F00E945E131E1414F0FE
:102A40009FEF01C091E0989F902D11249093CE03A9
:102A5000FF2061F00E945E131F1414F09FEF01C06D
:102A600091E0989F902D11249093CF033091CE0345
:102A70003323E1F02091CF032223C1F045EB34034F
:102A8000C0011124992319F09093CE0303C081E073
:102A90008093CE0335EB2303C0011124992319F051
:102AA0009093CF0303C081E08093CF03011103C053
:102AB000112309F45DC08091C5039091C6030E9463
:102AC0003C27AC019091C903992339F0209167020A
:102AD00030E02417350758F04BC0209168028AE097
:102AE000289F900111242417350718F041C09F3FFB
:102AF00019F09F5F9093C903002361F00E94A71310
:102B0000101614F09FEF01C091E0989F902D1124B2
:102B10009093D003112361F00E94A713111614F0B3
:102B20009FEF01C091E0989F902D11249093D103C5
:102B30003091D0033323E1F02091D1032223C1F05F
:102B400045EB3403C0011124992319F09093D0036D
:102B500003C081E08093D00335EB2303C00111242F
:102B6000992319F09093D10303C081E08093D1039E
:102B70008091CE0381110BC08091CF03811107C0DA
:102B80008091D003811103C08091D10381110E94F3
:102B9000B214EB82FC820D831E8386E0FE01319627
:102BA000ACECB3E001900D928A95E1F726960FB652
:102BB000F894DEBF0FBECDBFDF91CF911F910F9173
:102BC000FF90EF900895ECECF3E086E0DF011D92BA
:102BD0008A95E9F71092CA031092C9031092CB03A9
:102BE0000895EF92FF920F931F93CF93DF938B0182
:102BF000682F11110AC0442329F0E82FF0E0E854AF
:102C0000FC4F6491762F862F75C0212F30E0E82F7E
:102C1000F0E0442321F0E854FC4FE491F0E046E07A
:102C2000049FC0011124CFEFD0E0BE010E94E12E2D
:102C30004BEA4603C001479F900D1124800F911D60
:102C4000800F911D982F990F890FAE01421B530BD6
:102C50004E9FD0014F9FB00D5E9FB00D11249B2F52
:102C6000189FA0011124452F55278E01041B150B19
:102C70000E9FA0010F9F500D1E9F500D11247E012D
:102C8000E81AF108E29E8001E39E100DF29E100DFD
:102C90001124212F3327C21BD30BCE9F9001CF9F2E
:102CA000300DDE9F300D112462307105A9F048F41B
:102CB0006115710569F061307105C9F48B2F752FAD
:102CC0000DC06430710581F058F06630710579F4FB
:102CD0007E2F8B2F932F0DC0832F7B2F9E2F09C00C
:102CE0008E2F7B2F952F05C08E2F732F02C07E2F26
:102CF000852F692FDF91CF911F910F91FF90EF905A
:102D0000089541E00E94F115089520E030E0869F8B
:102D1000212D969F200D311D1124C9010895BC015C
:102D20008230910508F40895613E8EE1780748F4F9
:102D30009B0195E0369527959A95E1F748E0420F7B
:102D400001C04FEF91E0242F30E0290F311D359560
:102D50002795229FF001239FF00DF00D11246E178F
:102D60007F0718F44FEF420F04C02F3F39F091E076
:102D7000920F491740F78FEF890F08958FEF08954D
:102D8000482F982F46FD9095E92FEF739F7046FDD1
:102D90009F5FE295EF70EE0FF0E0E850FD4F21816C
:102DA000299F802D212D112482958F702295207FBF
:102DB000822B3081982F930F892F47FD8195805862
:102DC0000895622F0895E42FF0E0EE0FFF1FE25AFE
:102DD000FE4F6081621B0895E42FF0E0EE0FFF1FAD
:102DE000E15AFE4F6081621B0895EF920F931F938B
:102DF00093E0099F80011124159507956E2D600FB2
:102E00001F910F91EF9008954095282F429F412DDB
:102E10001124842F089522E8241B08F420E0620F77
:102E20000895EF92FF920F93970195E0099F200D6F
:102E3000311D11242F3F310519F010F02FEF30E034
:102E40002095382F320F08F43FEF832F0F91FF901A
:102E5000EF900895EF92FF920F93E00EF11CF901AD
:102E600037FF03C0F195E195F10924E0EE0FFF1F54
:102E70002A95E1F7EF3FF10519F014F0EFEFF0E0DC
:102E80009A0157FF03C031952195310994E0220F33
:102E9000331F9A95E1F72E173F070CF4F901EE0D59
:102EA000FF1DEF3FF10519F010F0EFEFF0E02E2FCE
:102EB0002095382F320F08F43FEF832F0F91FF90AA
:102EC000EF900895EF92FF920F939701201B310925
:102ED0002F3F310519F010F02FEF30E0322F3095F1
:102EE000482F430F08F44FEF842F620F0F91FF908C
:102EF000EF900895EF92FF920F939701201B3109F5
:102F00002F3F310519F010F02FEF30E02095382FCA
:102F1000320F08F43FEF832F0F91FF90EF90089549
:102F2000FC019B01009721F477FF2BC080E80895F6
:102F3000AC0197FF04C044275527481B590BB90122
:102F4000640F751F37FD0CC0241B350BC901A5E0AC
:102F5000880F991FAA95E1F70E94F52E80E20CC018
:102F6000CB0165E0880F991F6A95E1F7BA01621BF2
:102F7000730B0E94F52E80E6861BF7FF03C0819538
:102F8000089580E00895EF920F931F93CF93DF93FE
:102F9000D62FC72F182FC9010E19010FBA010E9491
:102FA0009017081B202F219F212D1124822F6D2F78
:102FB0007C2FDF91CF911F910F91EF9008950F9388
:102FC000CF93DF93D72FC82FC901BA010E94901762
:102FD000682F600F7D2F8C2FDF91CF910F91089577
:102FE000EF920F93CF93DF93D72FC82FC9010E19FC
:102FF000BA010E949017602F681B7D2F8C2FDF91E4
:10300000CF910F91EF9008950E948116089546E0A8
:1030100050E06CE170E088E894E00C94C22F46E048
:1030200050E06CE170E088E894E00C94E02FE8E870
:10303000F4E085E1808380917E0290917F02A091EF
:10304000800281839283A3838FE784838FEF8583BC
:103050000C940F1880E008950F931F93CF93DF9384
:10306000C82FD62F8A010E942A189FE0C99FF0011D
:103070001124EC5FFE4FED0FF11D90819F3F29F071
:10308000F801E80FF11D90838F5FDF91CF911F91C1
:103090000F910895E0910603F09107030994E091E0
:1030A0000203F091030309944F925F926F927F9213
:1030B0008F929F92AF92BF92CF92DF92EF920F9337
:1030C0001F93CF93DF932C013B01FC01C08182E170
:1030D000C89FC02D1124D2E1DC0FD83508F0D7E508
:1030E00060918C04669580918E0490918F040E946B
:1030F0008516182FCD1708F044C08C2E912CF401A2
:10310000E45FFD4F9081F20181818923C1F1F401D7
:10311000EE0FFF1FE25AFE4FC080D12CFCE5CF1A04
:10312000D108F401EE0FFF1FE15AFE4FA080B12C31
:1031300081E2A81AB108CC9C9001CD9C300D300DD5
:103140001124AA9CC001AB9C900D900D1124820FFC
:10315000931F0E948F16082F6091890470918A0432
:1031600080918B04E12E9501A601F30109950E943F
:103170000418462F282F672FC4010E944F18CF5FD5
:10318000B9CF81E0D73508F080E0DF91CF911F9172
:103190000F91EF90DF90CF90BF90AF909F908F9066
:1031A0007F906F905F904F90089563EC77E10C945F
:1031B000541865EF76E10C94541860EF77E10C94A5
:1031C0005418AF92BF92CF92DF92EF92FF920F937B
:1031D0001F93CF93DF936C015B01FC01C08182E1FF
:1031E000C89FC02D1124D2E1DC0FD83508F0D7E5F7
:1031F00060918C04669580918E0490918F040E945A
:103200008516182FCD1778F5EC2EF12CF701E45F19
:10321000FD4F9081F6018181892319F1F701EE0FAD
:10322000FF1FE15AFE4F208130E021523109F701A2
:10323000EE0FFF1FE25AFE4F408150E04C555109FE
:103240006091890470918A0480918B04012FF501AB
:1032500009950E940418462F282F672FC7010E9446
:103260004F18CF5FCFCF81E0D73508F080E0DF91F6
:10327000CF911F910F91FF90EF90DF90CF90BF9073
:10328000AF9008956FED77E10C94E118BF92CF9263
:10329000DF92EF92FF920F931F93CF93DF938C01F6
:1032A0007B01FC01C08182E1C89FC02D1124D2E1C5
:1032B000DC0FD83508F0D7E560918C0466956695EB
:1032C00021E0620F08F46FEF80918E0490918F04DB
:1032D0000E948516B82ECD17F0F4CC2ED12CF60115
:1032E000E45FFD4F9081F8018181892391F0609125
:1032F000890470918A0480918B042B2D4C2FF70147
:1033000009950E940418462F282F672FC6010E9496
:103310004F18CF5FE0CF81E0D73508F080E0DF9134
:10332000CF911F910F91FF90EF90DF90CF90BF90C2
:10333000089561EE76E10C94461963EE76E10C9403
:1033400046196CEE76E10C944619AF92BF92CF927B
:10335000DF92EF92FF920F931F93CF93DF938C0135
:103360007B01FC01C08182E1C89FC02D1124D2E104
:10337000DC0FD83508F0D7E520918C0431E0230F1D
:1033800008F42FEF30E040E050E06FEF7FEF80E097
:1033900090E00E94092F6901CD1708F041C0AC2EC2
:1033A000B12CF501E45FFD4F9081F8018181892303
:1033B000A9F190919204915097FD15C0292F092EE3
:1033C000000C330BF901EE56FB4F8189C813F3CF84
:1033D000220F331FF901EE56FB4F218D328D2C1534
:1033E0003D0548F701C0960160918C0441E0640FEF
:1033F00008F46FEFC9010E948516AC016091890441
:1034000070918A0480918B04F70109950E94041839
:10341000462F282F672FC5010E944F18CF5FBCCFC2
:1034200081E0D73508F080E0DF91CF911F910F91B7
:10343000FF90EF90DF90CF90BF90AF90089564E041
:1034400077E10C94A5196BE077E10C94A5192F9204
:103450003F924F925F926F927F928F929F92AF9224
:10346000BF92CF92DF92EF92FF920F931F93CF9371
:10347000DF93CDB7DEB729970FB6F894DEBF0FBE46
:10348000CDBF8B834B013A01DB011C9182E1189F78
:10349000102D1124B2E1B10FB983B83510F0E7E572
:1034A000E983F0919204FA838981181708F07FC0AC
:1034B000A12EB12CF501E45FFD4F9081D40111964E
:1034C0008C91892309F471C02090890430908A047A
:1034D0004B80512CC501880F991FFC01E25AFE4F09
:1034E000FD83EC83C501880F991F9C01215A3E4F33
:1034F0003F832E83FA814F1608F047C0E42CF12C4D
:10350000AC81BD81BC91EB2FF0E0F987E887F70132
:10351000EE56FB4F818128853985281B3109398773
:103520002887AE81BF81CC90D12C8185C81AD10863
:10353000F901EE9F9001EF9F300D300D1124CC9CCE
:10354000C001CD9C900D900D1124820F931F0E94FD
:103550008F16082F60918C0421E0620F08F46FEF42
:10356000F701EE0FFF1FEE56FB4F818D928D0E94EB
:1035700085167C01960148855985B101852DF30199
:1035800009951B014394582EB5CF20918B04352DFE
:10359000329F312D1124832FB1010E940418462F30
:1035A000282F672FC5010E944F181F5F7DCF81E034
:1035B0009981973508F080E029960FB6F894DEBF20
:1035C0000FBECDBFDF91CF911F910F91FF90EF9074
:1035D000DF90CF90BF90AF909F908F907F906F9033
:1035E0005F904F903F902F9008952091920431E08A
:1035F000231B08F420E041E157E1BC01822F0C9429
:10360000271A2091920431E0231B08F420E04AE2BB
:1036100057E1BC01822F0C94271A2091920431E0CB
:10362000231B08F420E042E657E1BC01822F0C94F2
:10363000271A4AE757E1BC0180E00C94271ADF9271
:10364000EF92FF920F931F93CF93DF938C01DC01D6
:103650008C91C2E18C9FC02D1124D2E1DC0FD835B2
:1036600008F0D7E56091890470918A0480918B04F9
:103670000E940418F62EE72ED82ECD1798F4EC2FC2
:10368000F0E0DF01A45FBD4F8C91D80111969C91B1
:10369000982331F02D2D4F2D6E2DCF010E944F1804
:1036A000CF5FEBCF81E0D73508F080E0DF91CF919D
:1036B0001F910F91FF90EF90DF900895DF92EF92AE
:1036C000FF920F931F93CF93DF938C01DC01CC917A
:1036D00082E1C89FC02D1124D2E1DC0FD83508F05B
:1036E000D7E5E0908904F0908A04D0908B04609133
:1036F0008C0466956695669580918E0490918F04F2
:103700000E9485160E94C016805887FD8195880FFB
:10371000282F3D2D239F212D1124822FB7010E9498
:103720000418F62EE72ED82ECD1798F4EC2FF0E0E3
:10373000DF01A45FBD4F8C91D80111969C91982315
:1037400031F02D2D4F2D6E2DCF010E944F18CF5FE0
:10375000EBCF81E0D73508F080E0DF91CF911F916A
:103760000F91FF90EF90DF900895DF92EF92FF921C
:103770000F931F93CF93DF93EC01FC01E45FFD4FA8
:103780009081692381F1D0908A0400918B0410917B
:103790008904E12EF12C0E949C2F282FC7018C5404
:1037A0009F4F68E671E00E94F52E8E199F0997FDE4
:1037B000039695958795959587952370612F289FFA
:1037C000600D11247D2D802F0E940418462F282F74
:1037D000672FCE01DF91CF911F910F91FF90EF9056
:1037E000DF900C944F18DF91CF911F910F91FF90B4
:1037F000EF90DF900895CF92DF92FF920F931F9387
:10380000CF93DF938C01FC01C281C1111DC0609177
:103810008C0420E1620F08F46FEF80918E04909188
:103820008F040E9485166AE070E00E94E12E892BC9
:1038300059F50E949C2F67E570E00E94F52EF80173
:1038400061810E94B51B20C0FC018081C2E18C9F78
:10385000C02D112492E1F92EFC0EF7E5FF1510F4AE
:1038600087E5F82ED0E0CF2CD12CCC15DD053CF42B
:10387000F8016181CE010E94B51B2196F6CFC1E00F
:10388000F6E5FF1508F4C0E08C2FDF91CF911F9172
:103890000F91FF90DF90CF900895E0910403F09195
:1038A00005030994CF92DF92FF920F931F93CF935A
:1038B000DF93CDB7DEB728970FB6F894DEBF0FBE03
:1038C000CDBF182F062FF42E0E94CB0E882309F4AB
:1038D0006FC0FF2049F0AE014F5F5F4F602F812F17
:1038E0000E942C18F82E01C0F12C0F2D10E08091B1
:1038F000D2039801280F311D293031056CF188E081
:1039000090E06C01C01AD10AB8016D527C4FA6013B
:1039100083ED93E00E94B92FB80165527C4FA60158
:103920008BED93E00E94B92FA601440F551FB801FB
:10393000660F771F65517C4F8BEE93E00E94B92F85
:10394000B8016D517C4FA60183EE93E00E94B92F20
:1039500088E08F198093D2031091D203DE01119673
:1039600040E0842F810FF41609F190E05D91252F3E
:1039700030E0BC016E527C4FF901EE0FFF1FE25A9E
:10398000FE4F0081FB010183220F331FF901E15A31
:10399000FE4F2081FB012187518B880F991FFC016D
:1039A000EE52FC4F128E118E4F5FDBCF8093D2030D
:1039B00028960FB6F894DEBF0FBECDBFDF91CF9132
:1039C0001F910F91FF90DF90CF90089580918E040A
:1039D00090918F04A0919004B091910488279C70DD
:1039E000AA27BB272AE0B695A795979587952A958C
:1039F000D1F782309105A105B10571F083309105B1
:103A0000A105B10569F040E00197A105B10511F0EC
:103A100060E008C064E102C044E160E080E003C00F
:103A200044E164E184E10C944D1CCF93C82F809154
:103A300071028C130DC020918804237030E04091F6
:103A4000720250E081E02417350719F480E001C0CC
:103A500081E081708093700280918D0490916F025B
:103A6000981739F080936F0240E060E080E00E9498
:103A70004D1CC83009F58EE692E00E94421908C03C
:103A8000C430B0F5C13009F58EE692E00E941F1BEC
:103A900090916E029F5F90936E0281118CC082E0C4
:103AA00080936D0280917002811185C0C11183C025
:103AB00083E080936D027FC0C930E0F5C33001F729
:103AC0008EE692E00E94D518E3CFC23050F4809188
:103AD0007002882359F040E060E080E00E944D1CB5
:103AE00005C08EE692E00E945E1BD2CF80E0D0CF70
:103AF000C53029F48EE692E00E949D19C9CFC530E9
:103B000028F48EE692E00E949919C2CFC63029F4BB
:103B10008EE692E00E94A119BBCFC73029F48EE651
:103B200092E00E94D918B4CF80916E028F5F80938B
:103B30006E02B5CFCD3029F48EE692E00E94F51AE0
:103B4000A7CFCE30E0F4CA3029F48EE692E00E948E
:103B5000FB1B9ECFCA3028F48EE692E00E94DD184F
:103B600097CFCB3029F48EE692E00E941F1A90CFB7
:103B7000CC30D1F68EE692E00E94231A89CFCF3066
:103B800029F48EE692E00E940D1B82CFCF3028F4FC
:103B90008EE692E00E94011B7BCFC03129F48EE6B5
:103BA00092E00E94191B74CFCF3F09F0BDCF0E9455
:103BB000E61C82E07ECFCF91089508950C94DD1D20
:103BC0000E94DE1D0C94830308950C94E41DCF9392
:103BD000DF93FC01C081C15082E1C89FC02D112438
:103BE000D2E1DC0FD83508F0D7E56D2F8C2F0E947D
:103BF000E51D6D2F8C2FDF91CF910C94E41D4F921A
:103C00005F926F927F928F929F92AF92BF92CF926C
:103C1000DF92EF92FF92CF936091FB037091FC03D0
:103C20008091FD039091FE030E944B276B017C0164
:103C30000E9430274B015C016093FB037093FC03EF
:103C40008093FD039093FE03A091D203E2EDF3E095
:103C50008A2F90E04FEF5FEF60E070E04C195D0954
:103C60006E097F09A91799F0218D328D2901612CE8
:103C7000712C441555056605770510F4815004C074
:103C80002C0D3D1D328F218F9F5F3296EBCF80939D
:103C9000D20380910004811108C0C09188048C2F48
:103CA000837019F0C695C69501C0C0E080916D0281
:103CB0008130D9F028F0823081F18330D9F152C0BF
:103CC00010926E0280928E0490928F04A0929004C3
:103CD000B092910489E2E2EDF3E0A2E9B4E0019050
:103CE0000D928A95E1F781E022C08C2F0E94151D6C
:103CF000CC23C1F10E94E01D8EE692E0CF91FF90AF
:103D0000EF90DF90CF90BF90AF909F908F907F907B
:103D10006F905F904F900C94E71DC093710280915B
:103D200088048370809372020E944A1883E0809313
:103D30006D0218C08091FF0381110E940F1810922C
:103D4000FF0360918E0470918F0480919004909194
:103D500091040E944B27603171058105910510F097
:103D600010926D02CF91FF90EF90DF90CF90BF90B7
:103D7000AF909F908F907F906F905F904F9008953D
:103D8000E0910003F0910103099510929204EBEA8F
:103D9000F4E08FEF9FEF8193919324E0EB3BF207E8
:103DA000D1F71092D203EBEEF3E08FEF9FEF819308
:103DB000919323E0EB3FF207D1F70E94020E8111AD
:103DC00004C00E94AA0E0E9417180E940718809132
:103DD00088048C7F11F40C9417180895CF93C82F82
:103DE000882391F08091000481110EC00E94151D5E
:103DF00010927102809188048370809372020E94F5
:103E00004A1883E080936D02C0930004CF91089517
:103E1000E8E8F4E0208191E09227908310926D020F
:103E20009091FF03892B8093FF03089581E00C9408
:103E3000081F909188049370A1F0811102C09460D2
:103E400007C0813110F0906403C0880F880F982B51
:103E50009093880410926D028091FF03682B609309
:103E6000FF03089561E00C94191F682F9091880456
:103E7000969596959F5F913110F4892F01C081E04E
:103E80000C94191F81E00C94351F682F90918804C1
:103E900096959695915011F0892F01C080E10C9470
:103EA000191F81E00C94451F90918804937071F064
:103EB0008093890460938A04493C08F048EC40935D
:103EC0008B048091FF03282B2093FF030895A8E81B
:103ED000B4E01196EC911197F0E0282F13964C91D5
:103EE000139712966C91CF0108960C94541F81E0A1
:103EF0000C94671FA8E8B4E01196EC911197F0E0DC
:103F0000282F13964C91139712966C91CF01089716
:103F10000C94541F81E00C947A1FE8E8F4E062816D
:103F200020E1620F08F46FEF9181282F4381892FE0
:103F300090E00C94541F81E00C948D1FE8E8F4E0AD
:103F4000628120E1621B08F460E09181282F4381A7
:103F5000892F90E00C94541F81E00C949E1FE8E898
:103F6000F4E0438120E1420F08F44FEF9181282FC4
:103F70006281892F90E00C94541F81E00C94AF1F54
:103F8000E8E8F4E0438120E1421B08F440E091813D
:103F9000282F6281892F90E00C94541F81E00C94AB
:103FA000C01F80938C048091FF03682B6093FF03F4
:103FB000089520918C0430E1230F08F42FEF682F2F
:103FC000822F0C94D11F81E00C94D91F20918C0476
:103FD00030E1231B08F420E0682F822F0C94D11FBE
:103FE00081E00C94E61F60E084E70E94DB2161E041
:103FF00086E70E94DB2162E085E70C94DB21CF930A
:104000000E94E82484E70E94532086E70E94532000
:1040100085E70E945320C0E021E041E061E08C2F61
:104020000E94F020CF5FC735B9F760E084E70E94B7
:10403000F32161E086E70E94F32162E085E7CF91FA
:104040000C94F321EBE6F6E06083418324E630E054
:1040500042E050E0BF01880F0C949F250F931F93FF
:10406000CF93DF93082F000FEB0114E210936B0640
:10407000ECE6F6E0DE018D91819386E0EC37F807FF
:10408000D1F724E630E041E150E06BE676E0802FA6
:104090000E949F25105F6096143B41F7DF91CF91FE
:1040A0001F910F910895CF93DF93C82F4BE06DEFD1
:1040B0000E94222040E06AE08C2F0E9422208FE3A1
:1040C0009CE90197F1F700C0000040E060E08C2F10
:1040D0000E94222040E061E08C2F0E94222040E0DC
:1040E00066E08C2F0E94222040E06DEF8C2F0E9412
:1040F0002220D0E040E06D2F8C2F0E942220DF5F35
:10410000D231C1F740E06D2F8C2F0E942220DF5F5B
:10411000D432C1F740E06D2F8C2F0E942220DF5F48
:10412000D43BC1F74BE06DEF8C2F0E94222041E081
:104130006AE08C2F0E94222040E06DEF8C2FDF91EF
:10414000CF910C9422208735910578F5FC01EE0F74
:10415000FF1FEE0FFF1FDF01AC50BF4FCD010296D6
:10416000FC0154910196FC013491FD01859183700D
:104170007491A82FB0E0F0E98F9FC00111248554FD
:104180009B4FFC01E70FF11DB4976083FC01E50F25
:10419000F11DB4974083830F911DFC01B4972083D8
:1041A000FD01E65CFB4F81E080830895FF920F9351
:1041B0001F93CF93DF93182F062FF42EC0E0D0E08B
:1041C0002F2D402F612FCE010E94A3202196C735AD
:1041D000D105B1F7DF91CF911F910F91FF90089515
:1041E0007F928F929F92AF92BF92CF92DF92EF9287
:1041F000FF920F931F93CF93DF93362F54E0859F49
:10420000C0011124DC01AC50BF4FFD01659163700A
:10421000762E649170E0CB0184978C0197FF02C0E9
:10422000095F1F4FE3E015950795EA95E1F7BD019A
:104230006E5F7F4FFB01649170E07B01F4E2EF1A47
:10424000F108E701F7FC279673E0D595C7957A95B5
:10425000E1F7FD013396649170E04B0154E2851A59
:104260009108F40197FC379653E0F595E7955A9538
:10427000E1F768E0A62EB12CB5010E94F52E6C0185
:10428000C701B5010E94F52E7C01C401B5010E9451
:10429000F52E1127672D70E0DD24332399F032E1EC
:1042A000369FD001379FB00D1124AC5FBB4FA00FDC
:1042B000B11F01E010E001C0000FCA94EAF73C9181
:1042C000032B13C032E1369FD001379FB00D11246C
:1042D000AC5FBB4FA00FB11F01E010E001C0000FA9
:1042E000CA94EAF700953C9103230C93DD27FF2441
:1042F00032E1442391F0369FA001379F500D1124E5
:104300004C5F5B4FC40FD51F41E050E001C0440F2C
:10431000EA94EAF73881432B12C0369FA001379FF9
:10432000500D11244C5F5B4FC40FD51F41E050E08E
:1043300001C0440FEA94EAF740953881432348834B
:10434000AF015527992792E1969FF001979FF00DB5
:104350001124EC5FFB4FE40FF51F222361F021E0F5
:1043600030E0A90102C0440F551F8A95E2F7CA0147
:104370009081892B0CC021E030E0A90102C0440FDC
:10438000551F8A95E2F7CA01809590818923808321
:10439000FB01EF5FFB4F81E08083DF91CF911F91A5
:1043A0000F91FF90EF90DF90CF90BF90AF909F90D4
:1043B0008F907F900895CF93DF93262F30E0E9010F
:1043C000C65CDB4F9881992351F090E9929FB00130
:1043D000939F700D112465547B4F0E942E201882EC
:1043E000DF91CF910895DF92EF92FF920F931F9389
:1043F000CF93DF93262F30E0A9014F5F5B4F7A0107
:10440000FA01908191110AC0F7011082DF91CF91DA
:104410001F910F91FF90EF90DF900895D82EF2E159
:104420006F9FE001112400E010E0F801EC0FFD1F88
:10443000EC5FFB4F4081602F8D2D0E9422200F5F8B
:104440001F4F0231110589F7DFCF882311F0FA01E0
:1044500001C0FB0109941F93CF93DF93FB011281ED
:10446000112309F48CC0EC010E944A0D8272CB3CEE
:10447000FCE5DF0709F46EC048F5C63CECE5DE0755
:1044800009F454C070F4C43C9CE5D90709F442C057
:1044900008F045C0C33CDC4509F074C00E94161FFB
:1044A00070C0C83C9CE5D90709F44AC008F443C071
:1044B000C93CFCE5DF0709F448C0CA3CDC4509F00B
:1044C00061C04EEC5FE16DEB7FE12DC0C03DECE5DE
:1044D000DE0709F450C088F4CD3C9CE5D90709F407
:1044E00043C0E8F1CE3CFCE5DF0709F442C0CF3C15
:1044F000DC4509F047C082E03FC0C73D9CE5D907D5
:1045000028F4C23DDC45E8F588E036C0CE35DD450F
:10451000C1F138C041E55FE162E47FE104C042E4FB
:104520005FE161E57FE10E9425222BC04AE85FE15F
:1045300067E77FE1F8CF47E75FE16AE87FE1F3CF24
:104540004CEA5FE16BE97FE1EECF4BE95FE16CEABA
:104550007FE1E9CF4DEB5FE16EEC7FE1E4CF40EF2F
:104560005FE163EE7FE1DFCF43EE5FE160EF7FE18C
:10457000DACF81E001C085E00E94321F02C011E065
:1045800001C010E0812FDF91CF911F9108950F930B
:104590001F93CF93DF93C42FD22FFC0182818823F6
:1045A000C9F040933F040E94242790933E048093D7
:1045B0003D0480E28C0F883008F057C0C77081E05E
:1045C00001C0880FCA95EAF7DF91CF911F910F9133
:1045D0000C945F0580913F04481330C080913D04E6
:1045E00090913E040E943C27883C910538F510E2EA
:1045F0001D0FCD17B9F080E28C0F883040F4C770E2
:1046000081E001C0880FCA95EAF70E94660518305C
:1046100028F581E09D2F977001C0880F9A95EAF7E1
:104620000E945F05802F0E9456051830F0F4D77065
:1046300081E001C0880FDA95EAF70AC080E28C0FAA
:10464000883098F4C77081E001C0880FCA95EAF7F6
:10465000DF91CF911F910F910C946605802FDF9110
:10466000CF911F910F910C945605DF91CF911F911F
:104670000F9108950F939C01CB01243F4CE5340723
:1046800031F188F4293DFCE53F07D9F02A3D4CE59E
:10469000340779F1283D3C45A9F506E221EE41EECB
:1046A00068ED7CE52BC0263FFCE53F07E1F0A8F074
:1046B000273F3C4539F507E225EE46EE67EF7CE5FE
:1046C0001DC007E225EE45EE69ED7CE517C006E268
:1046D00021EE40EE64EF7CE511C007E225EE44EEEA
:1046E00065EF7CE50BC006E221EE42EE66EF7CE56D
:1046F00005C008E221E045EE6AED7CE50E94C72294
:1047000080E008C0FC018281882319F010923F04E8
:1047100001C081E00F910895CF93DF93EC01FB017D
:104720008281882309F41FC1C230FCE5DF0708F449
:104730001BC1C6319CE5D90738F09E012B5F3C4573
:104740002930310508F010C10E94150E90936F04B6
:1047500080936E04C031ECE5DE0709F4C3C008F0B5
:1047600041C0C8308CE5D80709F49AC0F0F4C430D1
:10477000ECE5DE0709F487C068F4C2308CE5D807A1
:1047800009F477C0C330DC4509F0E3C080916E04C2
:10479000826076C0C630ECE5DE0709F46EC008F032
:1047A0007BC080916E0488606BC0CC308CE5D807EC
:1047B00009F485C068F4CA30ECE5DE0709F474C07A
:1047C00008F079C00E94E30780916E04806858C0A9
:1047D000CE308CE5D80709F476C008F07FC0809110
:1047E0006E048BC0CC3FECE5DE0709F44FC018F532
:1047F000C3318CE5D80709F47DC078F4C131ECE50C
:10480000DE0709F473C0C231DC4509F0A2C00E9482
:10481000E30780916E048F7733C0C5318CE5D807EC
:1048200009F472C008F486C0CB3FDC4509F091C0A2
:1048300080916F043EC0C115FDE5DF0709F45FC03C
:1048400058F4CE3F9CE5D90709F444C008F43FC0B2
:1048500080916F0482602DC0C230FDE5DF0709F44E
:1048600075C008F45DC0C330DD4509F072C080E05A
:104870006EC080916E04816003C080916E0480617F
:1048800080936E0466C080916E0411C080916F04A5
:10489000826080936F045DC080916E048062F0CF6F
:1048A00080916E048064ECCF80916E048860846097
:1048B000E7CF8160EECF80916E048E7FE1CF809153
:1048C0006E048D7FDDCF80916E04877FD9CF80917C
:1048D0006F0418C080916F048D7FDBCF80916E04D0
:1048E0008F7ECECF80916E048F7DCACF80916E0473
:1048F0008F7BC6CF80916E04877F8B7FC1CF8091E5
:104900006F048D7F8E7FC5CF80916E0482FB22273E
:1049100020F991E0922790FB82F990FB83F9B0CFC8
:1049200080916F04982F909591708E7F892B90FBCA
:1049300081F9AFCF0E94E30780916E0487FB2227A5
:1049400020F991E0922790FB87F99ACF81E00E94AD
:10495000AC0E80916E0490916F040E94260E0E940E
:10496000E30780E001C081E0DF91CF910895CF930C
:10497000DF9386319C4541F5EB010E944A0D982F4B
:104980008A812091630230916402882379F09A7AB7
:1049900081E009F480E080934004911102C069E253
:1049A00001C065E3C9010E94C4260AC08091400489
:1049B000811102C069E201C065E3C9010E94CF26EE
:1049C0000E948F0D80E001C081E0DF91CF910895BA
:1049D0001092B9008CE08093B80008959F92AF9236
:1049E000BF92CF92DF92EF92FF920F931F93CF93DC
:1049F000DF93B82EEB010E9424276C01C431D1054E
:104A000058F0CF3F8FEFD80759F0CE0164E170E046
:104A10000E94E12E7B0107C0EE24E394F12C03C039
:104A200025E0E22EF12C84E8A82E94EA992E10922B
:104A3000BC009092BC000E9424278C018091BC0095
:104A400087FD08C00E942427801B910B8E159F05AF
:104A5000A8F32AC08091B900887F883041F0809106
:104A6000B900887F803119F00FEF1FEF1FC0B0929F
:104A7000BB00A092BC000E9424278C018091BC0046
:104A800087FD08C00E942427801B910B8E159F056F
:104A9000A8F30AC08091B900887F883111F0803472
:104AA00019F700E010E00EC00EEF1FEFCF3F8FEFC1
:104AB000D80709F4BCCFC6010E943C278C179D077C
:104AC00008F4B5CFC801DF91CF911F910F91FF90EE
:104AD000EF90DF90CF90BF90AF909F9008950F938D
:104AE0001F93CF93DF93EB018093BB0084E8809307
:104AF000BC000E9424278C018091BC0087FD0EC061
:104B0000CF3F8FEFD807C1F30E942427801B910B62
:104B10008C179D0788F38EEF9FEF0CC02091B90092
:104B2000287F81E090E0283211F480E090E09195B8
:104B300081959109DF91CF911F910F910895CF92A7
:104B4000DF92EF92FF920F931F93CF93DF936B014E
:104B50008A017901B9010E94EE24E6010C0D1D1DA8
:104B6000C017D10761F424E92093BC00DF91CF91F5
:104B70001F910F91FF90EF90DF90CF90089597FDD8
:104B8000F2CFB70189910E946F25EACF9093460436
:104B9000809345040895E0914504F09146043097D0
:104BA00021F00190F081E02D099480E008950E94A9
:104BB000CB250895E0914504F0914604309799F093
:104BC00020917D02222359F020916E0427FF07C017
:104BD000DC012C9111962C93119725E02C930280E7
:104BE000F381E02D09940895E0914504F091460485
:104BF000309739F022E0DC012C930480F581E02D20
:104C000009940895209143043091440428173907EA
:104C100071F09093440480934304E0914504F09133
:104C20004604309721F00680F781E02D099408951D
:104C300020914104309142042817390771F0909374
:104C4000420480934104E0914504F091460430977A
:104C500021F00084F185E02D09940895FC0132963D
:104C600080917D02882331F080916E0487FF02C01D
:104C70009EE101C096E080E0915028F0219122232E
:104C8000D9F38F5FF9CF0895662351F120917D020A
:104C90002223E9F020916E0427FF19C0462F469584
:104CA000469546954E31E0F4677021E030E002C051
:104CB000220F331F6A95E2F7FC01E40FF11D828198
:104CC00090E02823392381E0232B69F409C0FC01FB
:104CD000329608962191621729F0E817F907D1F763
:104CE00080E0089581E008959C01FC0132969FEFD9
:104CF00080E04191461789F09F3F19F4411101C0AE
:104D0000982F8F5F8630A9F79F3F39F0F901E90F9F
:104D1000F11D97FDFA956283089508959C012A5F1D
:104D20003F4FFC014281461301C012820196821757
:104D30009307B9F70895262F2695269526952E31A7
:104D400068F4FC01E20FF11D677021E030E001C062
:104D5000220F6A95EAF78281282B22830895262F55
:104D60002695269526952E3170F4FC01E20FF11D53
:104D7000677021E030E001C0220F6A95EAF72095C4
:104D8000828128232283089520917D02222329F005
:104D900020916E0427FD0C949B260C947426209180
:104DA0007D02222329F020916E0427FD0C94AF266A
:104DB0000C948E2620917D02FC013296222331F044
:104DC00080916E0487FF02C08EE101C086E0DF01A2
:104DD0001D928A95E9F70895089508950C94ED269B
:104DE0000C94ED26CF930E94F0260E94CD120E94D3
:104DF000EE26C0E08C2F0E94F011892B29F4CF5FA2
:104E0000C630C1F780E001C081E0CF9108950C94D5
:104E1000ED2680918706843011F00C947903089573
:104E20000E94E3070E94CB250E945C0480E00E9460
:104E3000EE1E0C947E0382E084BD93E095BD9AEF54
:104E400097BD80936E0008952FB7F89480917F06E8
:104E500090918006A0918106B09182062FBF08959F
:104E60002FB7F89460917F0670918006809181063B
:104E7000909182062FBF08959C014FB7F8948091BE
:104E80007F0690918006A0918106B09182064FBF67
:104E9000821B930B0895CF92DF92EF92FF922FB770
:104EA000F894C0907F06D0908006E0908106F09044
:104EB00082062FBFA7019601261B370B480B590B03
:104EC000CA01B901FF90EF90DF90CF9008957894D8
:104ED0001F920F920FB60F9211248F939F93AF934F
:104EE000BF9380917F0690918006A0918106B0913A
:104EF00082060196A11DB11D80937F0690938006C6
:104F0000A0938106B0938206BF91AF919F918F913C
:104F10000F900FBE0F901F90189581E08093E000D6
:104F200080E28093D8001092C9008FE19EE401973F
:104F3000F1F700C0000087E090EBDC018093900661
:104F400090939106A0939206B09393069CE088E11B
:104F50000FB6F894A895809360000FBE9093600000
:104F6000FFCF90930903809308030895E1E8F0E0F0
:104F70008081886080838081816080838FB7F8948E
:104F800020ED33E030938900209388008FBF08958F
:104F9000EFE6F0E08081826080830895EFE6F0E044
:104FA00080818D7F808308951F920F920FB60F929C
:104FB00011242F933F934F935F936F937F938F931E
:104FC0009F93AF93BF93EF93FF938091470490918A
:104FD000480401969093480480934704811103C0CC
:104FE00082E00E945C04E0914804E695E695F0E0DA
:104FF000E854FB4FE491809147048E1303C080E096
:105000000E945C04FF91EF91BF91AF919F918F91AE
:105010007F916F915F914F913F912F910F900FBEB4
:105020000F901F90189580916C04089590918706B9
:10503000943031F58093490470934B0460934A0493
:1050400082E08093E9008FEF9091E800815095FD18
:1050500006C095ED9A95F1F700008111F5CF80918A
:10506000E80085FF0DC040E050E063E070E089E4B7
:1050700094E00E94432A8091E8008E778093E800B4
:105080000895BC0184E00C941628BC0183E00C94C4
:10509000162822E02093E9002FEF3091E8002150FC
:1050A00035FD06C035ED3A95F1F700002111F5CF39
:1050B0002091E80025FF0BC040E050E066E070E082
:1050C0000E94432A8091E8008E778093E80008953B
:1050D000CF93DF9320917D02222339F020916E043B
:1050E00027FF03C060E222E002C068E021E02093D5
:1050F000E9002FEF3091E800215035FD06C035ED75
:105100003A95F1F700002111F5CF2091E80025FF35
:105110001DC0EC0180917D02811105C040E050E08E
:1051200068E070E003C070E040E050E0CE010E9413
:10513000432A8091E8008E778093E80080E2FE01A8
:10514000ACE4B4E001900D928A95E1F7DF91CF9144
:10515000089580918606811109C00E94D42B0E9477
:10516000312C8091E20084608093E20008951092D7
:105170008606089508950C94C8270E94CE270E94A1
:10518000CB250C945C0442E061EC81E00E944D2B45
:1051900042E261EC82E00C944D2B809189068330D1
:1051A00009F460C030F4813071F0823009F499C0A4
:1051B00008958A3009F485C08B3009F46BC08930BA
:1051C00009F0A7C020C080918806813A09F0A1C0EB
:1051D0008091E800877F8093E80080918C06909111
:1051E0008D06892B21F460E28CE494E003C060E03A
:1051F00080E090E070E00E948E2A8091E8008B773A
:105200008093E800089580918806813209F081C07A
:1052100080918C0690918D06029708F07AC080915B
:10522000E800877F8093E8008091E80082FD05C058
:10523000809187068111F8CF6CC02091F300809196
:10524000F20090E0922B029729F48091F1008B7F7D
:10525000813021F48091F10080936C048091E8000A
:105260008B7753C080918806813A09F052C08091B3
:105270008C0690918D06892B09F04BC08091E80037
:10528000877F8093E8008091E80080FFFCCF8091C9
:105290007D0236C0809188068132D9F580918C06D6
:1052A00090918D06892BA9F58091E800877F8093E6
:1052B000E8000E94822B80918A0680937D020C94E4
:1052C000E30780918806813221F58091E800877F8D
:1052D0008093E8000E94822B80918B0680936D045E
:1052E000089580918806813AA1F48091E800877F33
:1052F0008093E8008091E80080FFFCCF80916D04EE
:105300008093F1008091E8008E778093E8000C9400
:10531000822B089584B7877F84BF0FB6F894A89531
:1053200080916000886180936000109260000FBEE1
:1053300090E080E80FB6F89480936100909361004C
:105340000FBE0C94DC0E0E94D42B0E94312CE2EE96
:10535000F0E080818460808378940E94C62E0E9451
:10536000EA0E83E792E00E94C6250C94B62780914E
:1053700087068530A9F480918706853079F40E94EC
:105380000927809185068823B1F30E94F22688239D
:1053900091F30E942D2A0E94E307EDCF0E9410276F
:1053A0000C94F00E0C94D429292F33272330310587
:1053B000C9F060F42130310581F02230310509F067
:1053C00044C08BE390E02CE135E043C0213231054D
:1053D000E1F02232310549F138C082E190E027E561
:1053E00035E037C099278130910549F028F00297C0
:1053F00061F5E8EFF4E005C0E8E1F5E002C0E8E0BF
:10540000F5E0849190E09F0124C06115710541F0A1
:1054100061307105D1F489E090E027E435E019C0EE
:1054200089E090E02EE235E014C06115710541F08D
:105430006130710551F486EB90E029E635E009C052
:1054400080E490E02FE136E004C080E090E020E0CE
:1054500030E0FA0131832083089580E189BD82E143
:1054600089BD09B400FEFDCF8091D8008F7D809367
:10547000D8008091E00082608093E0008091E0009D
:1054800081FDFCCF0895CF92DF92EF92FF920F93B0
:105490001F93CF93DF93EC018B017A010E94A12B24
:1054A000811133C0E114F10439F0F7018081918159
:1054B000081B190BC80FD91FC12CD12C01151105C0
:1054C00019F18091E80085FD16C08091E8008E7783
:1054D0008093E800E114F10449F0F70180819181A3
:1054E000C80ED91ED182C08285E00FC00E94A12BB8
:1054F000882321F30AC089918093F100015011099A
:10550000FFEFCF1ADF0ADACF80E0DF91CF911F9152
:105510000F91FF90EF90DF90CF90089520918E062D
:1055200030918F062617370748F06115710539F459
:105530002091E8002E772093E80001C0B901FC011A
:1055400020E06115710579F1809187068823F1F1DA
:105550008530F1F18091E80083FD3CC08091E80046
:1055600082FD2EC08091E80080FFEBCF2091F300F8
:105570008091F20090E0922B6115710551F0883016
:10558000910538F421912093F10061507109019641
:10559000F3CF21E0089709F020E08091E8008E77B2
:1055A0008093E800CECF2111CFCF0AC0809187062B
:1055B000882361F0853061F08091E80083FD0AC0A6
:1055C0008091E80082FFF2CF80E0089582E00895A4
:1055D00083E0089581E0089520918E0630918F0632
:1055E0002617370748F06115710539F42091E80056
:1055F0002E772093E80001C0B901FC0120E061157D
:10560000710591F180918706882309F440C08530A7
:1056100009F43FC08091E80083FD3DC08091E8001F
:1056200082FD2FC08091E80080FFE9CF2091F30038
:105630008091F20090E0922B6115710559F088304D
:10564000910540F424912093F10031966150710945
:105650000196F2CF21E0089709F020E08091E80060
:105660008E778093E800CBCF2111CCCF0AC08091F8
:105670008706882361F0853061F08091E80083FD22
:105680000AC08091E80082FFF2CF80E0089582E0B6
:10569000089583E0089581E00895982F973068F584
:1056A0009093E900981739F07091EC002091ED008B
:1056B0005091F00003C0242F762F50E021FD02C04E
:1056C0009F5FECCF3091EB003E7F3093EB00309149
:1056D000ED003D7F3093ED003091EB003160309371
:1056E000EB007093EC002093ED005093F0002091BC
:1056F000EE0027FDE5CF80E008958F708093E900EC
:1057000081E008958091880687FF11C08091E800AC
:1057100082FD05C0809187068111F8CF11C080916C
:10572000E8008B770BC080918706882349F0809131
:10573000E80080FFF8CF8091E8008E778093E80042
:1057400008952091E4003091E50095E64091EC0049
:10575000842F817040FF23C08091E80080FD1DC030
:1057600080918706882399F0853099F08091EB002D
:1057700085FD11C04091E4005091E50024173507E4
:1057800029F3915011F09A01E1CF84E0089582E06D
:10579000089583E0089581E0089580E008954091A0
:1057A000E80042FFDDCF08950E94422C0E944A2C5F
:1057B000E0EEF0E0808181608083E8EDF0E08081C0
:1057C0008F77808319BCA7EDB0E08C918E7F8C938E
:1057D00080818F7E80831092860608950F931F9399
:1057E000CF93DF930E94422C0E944A2CC8EDD0E058
:1057F00088818F77888388818068888388818F7D7E
:10580000888319BC10928706109283061092850631
:105810001092840600EE10E0F80180818B7F808377
:1058200088818160888342E060E080E00E944D2BA7
:10583000E1EEF0E080818E7F8083E2EEF0E0808117
:1058400081608083808188608083F80180818E7F81
:105850008083888180618883DF91CF911F910F9130
:105860000895E8EDF0E080818F7E8083E7EDF0E041
:1058700080818160808384E082BF81E0809386069E
:105880000C94EE2BE8EDF0E080818E7F8083109207
:10589000E20008951092DA001092E10008951F923C
:1058A0000F920FB60F9211242F933F934F935F9354
:1058B0006F937F938F939F93AF93BF93EF93FF93D8
:1058C0008091E10082FF0BC08091E20082FF07C05F
:1058D0008091E1008B7F8093E1000E94C52E809132
:1058E000DA0080FF1FC08091D80080FF1BC080912C
:1058F000DA008E7F8093DA008091D90080FF0DC09E
:1059000080E189BD82E189BD09B400FEFDCF81E05F
:10591000809387060E94A92805C019BC10928706AB
:105920000E94B7288091E10080FF19C08091E200B9
:1059300080FF15C08091E2008E7F8093E20080910D
:10594000E20080618093E2008091D80080628093C1
:10595000D80019BC85E0809387060E94BB288091FF
:10596000E10084FF30C08091E20084FF2CC080E120
:1059700089BD82E189BD09B400FEFDCF8091D800C8
:105980008F7D8093D8008091E1008F7E8093E1002D
:105990008091E2008F7E8093E2008091E20081603E
:1059A0008093E20080918306882311F084E007C091
:1059B0008091E30087FD02C081E001C083E0809315
:1059C00087060E94BD288091E10083FF29C0809155
:1059D000E20083FF25C08091E100877F8093E10092
:1059E00082E080938706109283068091E1008E7F8B
:1059F0008093E1008091E2008E7F8093E2008091AD
:105A0000E20080618093E20042E060E080E00E947A
:105A10004D2B8091F00088608093F0000E94BA289E
:105A2000FF91EF91BF91AF919F918F917F916F9176
:105A30005F914F913F912F910F900FBE0F901F904C
:105A400018951F920F920FB60F9211242F933F9328
:105A50004F935F936F937F938F939F93AF93BF9376
:105A6000CF93DF93EF93FF93C091E900CF708091C4
:105A7000EC00D82FD17080FDD0E81092E900809121
:105A8000F000877F8093F00078940E94652D10923B
:105A9000E9008091F00088608093F000CD2BCF70FA
:105AA000C093E900FF91EF91DF91CF91BF91AF914A
:105AB0009F918F917F916F915F914F913F912F9126
:105AC0000F900FBE0F901F9018951F93CF93DF93E9
:105AD000CDB7DEB7AA970FB6F894DEBF0FBECDBF25
