:100000000C94EC020C9424030C9424030C9424030D
:100010000C9424030C9424030C9424030C942403C4
:100020000C9424030C9424030C94C22A0C94962B55
:100030000C94B3250C9424030C9424030C942403F3
:100040000C9424030C9424030C9424030C94240394
:100050000C9424030C9456260C9424030C9424032F
:100060000C9424030C9424030C9424030C94240374
:100070000C9424030C9424030C9424030C94240364
:100080000C9424030C9424030C9424030C94240354
:100090000C9424030C9424030C9424030C94240344
:1000A0000C9424030C9424030C9424030026364659
:1000B000002737470028384800293949002A3A4A9A
:1000C000002B3B4B0126364601273747012838488D
:1000D00001293949012A3A4A012B3B4B022636466F
:1000E0000227374702283848007464540075655564
:1000F0000076665600796959007A6A5A007B6B5B14
:100100000174645401756555017666560179695923
:10011000017A6A5A017B6B5B0274645402756555FF
:100120000276665600A4948400A5958500A696865E
:1001300000A7978700A8988800A99989027B6B5B24
:1001400001A4948401A5958501A6968601A79787A9
:1001500001A8988801A9998902796959027A6A5A8D
:10016000002E3E4E002F3F4F003040500031415195
:10017000003242520033435301AC9C8C012E3E4E60
:10018000012F3F4F01304050013141510132425265
:100190000133435302A7978702A89888007C6C5CC0
:1001A000007D6D5D007E6E5E008171610082726215
:1001B0000083736301AD9D8D017C6C5C017D6D5D81
:1001C000017E6E5E018171610182726201837363DF
:1001D00002A9998900AC9C8C00AD9D8D00AE9E8ECD
:1001E00000AF9F8F00B0A09000B1A19101AE9E8E94
:1001F00001AF9F8F01B0A09001B1A19102293949AF
:10020000022A3A4A022B3B4B29003A003B003C00B1
:100210003D003E003F0040004100420043004400DA
:1002200045005D00460035001E001F002000210033
:1002300022000000230024002500260027005E0085
:100240004A002A002B0014001A00090013000500C0
:100250004B001D000F0018001C000D005F004D003A
:100260003102390004001500160017000A005B0077
:100270001000110008000C001200600024024E0063
:100280005900E1001B000600070019005C000E0089
:100290000B0036003700E500610052000000E0006E
:1002A000E200E30000005A004C002A002C0000008D
:1002B000280021526200500051004F00007C0100D4
:1002C0000100010001000100010001000100B20075
:1002D000B300AF00B1001370037C01000100010006
:1002E0000100010001000000010001000100010007
:1002F000010001000100530020782178277823783D
:10030000010001004A00010001000100010001009C
:1003100001000100010001002A78287829780100F5
:1003200001000100010001000100010001000100C5
:1003300001004D0001000100010001000100010069
:10034000010001000100010001000100A800A90056
:100350000000010001000100000001000100010097
:100360000100000001000100AE00AC00AA00AB00DB
:100370000001010101010101010102020202020268
:10038000020202030303030303030304040404043B
:100390000404050505050506060606060707070702
:1003A0000708080808090909090A0A0A0B0B0B0CB7
:1003B0000C0C0D0D0D0E0E0E0F0F0F101011111154
:1003C00012121313141415151616171718181919D5
:1003D0001A1A1B1B1C1D1D1E1E1F2020212222233A
:1003E0002424252626272829292A2B2C2D2D2E2F7B
:1003F00030313232333435363738393A3B3C3D3E92
:100400003F404142434445464748494A4C4D4E4F80
:1004100050515354555658595A5B5D5E5F61626442
:10042000656668696B6C6D6F7072737577787A7BCF
:100430007D7E8082838587888A8C8E8F9193959626
:10044000989A9C9EA0A2A3A5A7A9ABADAFB1B3B546
:10045000B7BABCBEC0C2C4C6C9CBCDCFD1D4D6D822
:10046000DBDDDFE2E4E7E9EBEEF0F3F5F8FAFDFFC0
:100470000E034E004100540055005200450000009C
:100480000E0358002D0042004F005700530000009B
:100490000403090409023B00020100A0FA09040058
:1004A00000010301010009211101000122400007A0
:1004B000058103080001090401000103000000098F
:1004C000211101000122B60007058203200001125C
:1004D000010002000000084258614E0100010200C4
:1004E0000105010902A10185020901A100050919FF
:1004F00001290815002501950875018102050109EA
:100500003009311581257F95027508810609381556
:1005100081257F950175088106050C0A3802158131
:10052000257F950175088106C0C005010980A101DC
:10053000850319012AB700150126B700950175102A
:100540008100C0050C0901A101850419012AA0023E
:10055000150126A002950175108100C0050109064C
:10056000A1018506050719E029E715002501950871
:10057000750181020507190029EF1500250195F085
:10058000750181020508190129059505750191027A
:10059000950175039101C005010906A1010507191F
:1005A000E029E7150025019508750181029501757F
:1005B0000881010507190029FF150026FF0095068F
:1005C0007508810005081901290595057501910235
:1005D000950175039101C00011241FBECFEFDAE031
:1005E000DEBFCDBF04B603FE18C08091AE06909169
:1005F000AF06A091B006B091B1068730904BA740EE
:10060000B04B59F41092AE061092AF061092B0069D
:100610001092B106E0E0F8E3099513E0A0E0B1E044
:10062000E8E7FDE502C005900D92A431B107D9F7C6
:1006300026E0A4E1B3E001C01D92AE3AB207E1F7B3
:100640000E9483120C94542E0C940000CF930E94AD
:100650000C1DC82F882359F00E942C2481FF07C04D
:100660002FEF4FEF6FEF8DE290E00E94AF178C2FCE
:10067000CF9108958230B8F46630A8F44F3098F4E2
:1006800050E09FE0699F400D511D1124FA019AE549
:10069000899FE00DF11D1124EE0FFF1FE85FFD4F54
:1006A00085919491089581E090E008950E943A0325
:1006B000089581E0089581E008950E945B03089504
:1006C00008950E9460030895A5E0B0E0EAE6F3E033
:1006D0000C94BB2D49835A8330911B0389819A81E5
:1006E000311119C0662399F0222389F00E94130961
:1006F000182F682F89819A810E94EF0869817A8179
:10070000812F0E94F30F2596E3E00C94D72D0E94D1
:100710000109182FF3CF0E94130969817A81F1CF63
:10072000FC01262F408151816281738184810E9466
:100730006403089581E00895CF93DF93EC0160E0B6
:100740000E949003BE010E946103DF91CF91089542
:1007500008950E94BE070E94A8032FEF84E39CE047
:10076000215080409040E1F700C0000008950E94B1
:10077000A9030E947A2608950E94A9030E949E263A
:1007800008950F931F93CF93DF938C0161E00E9434
:100790009003EC01B8010E945D03811106C080E066
:1007A000DF91CF911F910F910895B801CE010E9462
:1007B00010238823A1F3B801CE010E94A62188232B
:1007C00071F3B801CE010E948222882341F3B8015F
:1007D000CE010E944921882311F3F80182818823E8
:1007E00061F0C330FCE7DF07E9F058F4C115ECE72E
:1007F000DE07A9F0C130DC47B9F0C8010E945903F7
:10080000CFCFCB358CE7D807A9F0CC35ECE7DE07A6
:1008100071F0CA35DC4789F70E94440DEECF0E9483
:10082000B703BDCF0E944C0D0E94BC03B8CF0E94FD
:100830003A0DE3CF0E94480DE0CF0E948F250E9421
:10084000211D0E944C0481E00E94401E08950E94D8
:10085000500480E00E94401E0E949425089508954F
:1008600081E008950895CF93DF93D82F0E9430043C
:10087000C82F882319F08D2F0E9432048C2FDF910E
:10088000CF9108950895CF93C82F0E942F048C2FE5
:100890000E943304CF91089580E00E94430408959C
:1008A0000E941F240E9443040895CF930E941F2496
:1008B000C82F809116038C1779F0C09316030E94FD
:1008C0001F26609317037093180380931903909366
:1008D0001A038C2F0E944304CF910895ABE0B0E03F
:1008E000E4E7F4E00C94BC2D4F83588769877A873E
:1008F0008B8761110E94850C1E821D8285E0FE019E
:100900003796DE01119601900D928A95E1F78C8160
:100910009D81892B61F449815A816B817C818D8114
:100920009E810E94AD0B2B96E2E00C94D82D89811C
:100930009A8189238F3F79F3CE0101960E949A0311
:100940008111E9CFF0CFFC01808191810E9445099E
:100950000895662329F00E9407130E94DA13089570
:100960000E946113FACFCF93C82F8823B9F08CEF80
:100970008C0F813AA8F46C2F80915F0290916002F5
:100980000E94B524882329F08C2F0E94450C0E94D8
:10099000A60C8C2F0E943D0C0E94A60CCF910895AE
:1009A00080E28C0F883048F4C77081E001C0880F66
:1009B000CA95EAF70E94680CEFCFEBE5EC0FE33045
:1009C00040F4F0E0ED54FD4F808190E00E94572408
:1009D000E5CFE8E5EC0FEB3150F4F0E0EE0FFF1F50
:1009E000E358FD4F808191810E947C24D7CF83E31F
:1009F0008C0F833198F661E08C2F0E94A904CECF32
:100A0000882381F19CEF980F913A28F40E94450CBD
:100A10000E94A60C089590E2980F983050F48770C9
:100A200091E001C0990F8A95EAF7892F0E946E0C18
:100A3000EFCF9BE5980F933028F490E080E00E9480
:100A40005724089598E5980F9B3128F490E080E0B2
:100A50000E947C24089593E3980F933118F460E08A
:100A60000E94A90408951F93CF93DF93182FEB01E1
:100A70000E94B304209739F4812F0E940005DF9172
:100A8000CF911F9108958FE99FE00197F1F700C082
:100A900000002197EFCF70E060E0893311F460E54A
:100AA00070E00E9433050895882321F00E94680CAD
:100AB0000E94A60C0895882321F00E946E0C0E94CB
:100AC000A60C0895B0E0A0E0E8E6F5E00C94B52DA2
:100AD0006C01D62FC72FFC011281058102950F7082
:100AE0000E945E0CE82E8823E9F0E12E1123D1F05C
:100AF0008C2F807F803451F080E28D0F8830F8F0A9
:100B0000011104C08C2F807E8032C9F080918D0449
:100B100082FF15C082E00E94090D0E945E0C91E0E8
:100B2000E82EE926BC2EB2949FE0B922FBE0FB152B
:100B3000B8F1EB2DF0E0EA5AF14D0C94A62DE12C22
:100B4000F1CF0C2F0F70C07F11F00295007F1123A1
:100B500099F0002359F080E28D0F883010F0D11108
:100B600007C0802F0E94680C0E94A60C8D2F63C0C6
:100B7000802F0E94780CF8CF8D2F0E940005002353
:100B800079F080E28D0F883010F0D11104C0802FF1
:100B90000E946E0C03C0802F0E947E0C0E94A60C47
:100BA0002B2D2850330B2430310520F40E941F24B4
:100BB0000E944304EE2089F00E945A0C80FD0DC073
:100BC000F60112820E94540C0E944D08C6010E9438
:100BD0007E070E94540C0E945D08CDB7DEB7E9E0A5
:100BE0000C94D12D2C2F2F70F22EC07FC03219F013
:100BF000F29480EFF822DD2381F0D13009F449C06E
:100C0000112309F451C0002309F448C0F60185817D
:100C100080FFACCF8F70858341C080918D0482FDB1
:100C200015C0112359F0FF2029F08F2D0E94680C68
:100C30000E94A60C80E00E94B304B2CF80E00E9424
:100C40000005FF2009F4ACCF8F2DA2CF112381F036
:100C5000011106C00E94880C8F290E945405A0CF64
:100C60000130C1F70E94880C8F290E948F0C98CF09
:100C7000011106C00E949C0C8F2D0E945B0590CF35
:100C8000013009F48DCF8F2D0E945B050E949C0CD2
:100C900087CF112329F0063008F082CF8F2DDDCFCA
:100CA000053008F07DCFE8CF002331F3D93349F484
:100CB000FFEF27EE33E0F15020403040E1F700C075
:100CC00000008D2F0E9400056BCF8C2F8695869596
:100CD000837069F0813009F063CF8D2F9C2F937062
:100CE000111102C080E090E00E947C2459CF8D2F2A
:100CF0009C2F9370111102C080E090E00E94572455
:100D00004FCF612F8D2F0E94A9044ACF8C2F837063
:100D1000A1F5111145CF4D2F429546954770440FCF
:100D2000440F2D2F2F7030E0042E02C0220F331FEE
:100D30000A94E2F790E080E0D4FF09C08FE090E0F1
:100D400002C0880F991F4A95E2F780959095C69545
:100D5000C695C370822B932BC23049F058F4C13032
:100D600019F00E941D081CCF0E94140819CF0E9480
:100D7000260816CF0E94110813CF8695112311F073
:100D80008C2F8170882309F40BCF4D2F4295469507
:100D90004770440F440F2D2F2F7030E0042E02C0F7
:100DA000220F331F0A94E2F790E080E0D4FF09C0DD
:100DB0008FE090E002C0880F991F4A95E2F7809576
:100DC0009095C695C695C370822B932BC23049F07F
:100DD00058F4C13019F00E948808E2CE0E947F08C2
:100DE000DFCE0E949108DCCE0E943508D9CECF70AC
:100DF000112329F08C2F0E944D088D2F2ECF8D2F7F
:100E00000E945B058C2F0E945D08CACED23F41F143
:100E100060F4D03FB9F0D13F81F0112309F446C00E
:100E20000111A4CE8C2F8F711FC0D33F01F1D43F8D
:100E3000A1F780918D0482FD24C08C2F8F71112326
:100E400011F312C0112341F0053008F0A9CE8C2F08
:100E50008F710E946F08A4CE063008F0A1CEF7CFA4
:100E60008C2F8F711111CFCF0E944D0899CE112375
:100E700029F08C2F8F710E94410892CE0E943C086D
:100E80008FCE112349F0CF718C2F0E944D0863E063
:100E90008C2F0E94EB0C84CE81E00E94090D023061
:100EA00008F47ECE82E00E94090D7ACE002359F02C
:100EB000D93309F006CF8FEF97EEE3E081509040F1
:100EC000E040E1F7FCCE8C2F8F719DCF0F931F93E5
:100ED000CF93DF93EC01688179818A810E94500968
:100EE0008C010E949A080E941008B801CE010E944D
:100EF0006205DF91CF911F910F910895CF93DF93FA
:100F0000EC018B819C81892B29F08881998189232F
:100F10008F3F51F4DF91CF910895CE010E94660773
:100F2000CE010E949C03F6CFCE010E94C103811125
:100F3000F4CF0E945E0C882369F38A81882351F3E1
:100F400080918D0482FFE6CF82E00E94090DE2CFFE
:100F500090E080E00E94572490E080E00E947C2492
:100F60000E94850C0E94A60C0E94F6130E94DA13C0
:100F700008950E944D0C0E94A80708950E94750CC8
:100F80000E94B907089592959F70963091F058F499
:100F9000925F9F70923058F4803F19F030F4883E91
:100FA00030F481E008959A5FF4CF843FD1F380E07C
:100FB0000895883EB0F3813FD1F7F3CFFC018381E0
:100FC0009481892B29F08081918189238F3F11F4AD
:100FD00080E00895808191810E9445090E94C307A5
:100FE0000895A5E0B0E0E7EFF7E00C94BC2D25965E
:100FF000E2E00C94D82DA6E0B0E0E1E0F8E00C943B
:10100000BC2D2696E2E00C94D82D08950E94050888
:1010100008950E94060890934F0380934E0308950D
:1010200008950E940908089520914E0330914F03BE
:10103000822B932B0E940908089520914E03309132
:101040004F03822393230E940908089520914E03A1
:1010500030914F03822793270E94090808950E9428
:10106000050808950E942F0808950E943208909361
:101070004D0380934C03089590E080E00E94350872
:10108000089521E030E0A90102C0440F551F8A9560
:10109000E2F7CA010E943508089521E030E002C05D
:1010A000220F331F8A95E2F780914C0390914D03F4
:1010B000822B932B0E943508089521E030E002C076
:1010C000220F331F8A95E2F72095309580914C03CB
:1010D00090914D03822393230E943508089521E0C7
:1010E00030E002C0220F331F8A95E2F780914C0353
:1010F00090914D03822793270E94350808952091EF
:101100004C0330914D03822B932B0E943508089598
:1011100020914C0330914D03822393230E94350884
:10112000089520914C0330914D03822793270E940C
:10113000350808950895262F277091E001C0990F72
:101140002A95EAF723E0769567952A95E1F7660FE9
:10115000771F660F771FFA01E60FF71F50E040E098
:10116000682F70E08191DF0111979B01042E02C06E
:10117000369527950A94E2F721702195282729238F
:1011800028272C934F5F5F4F4430510559F708953E
:10119000A82FA77023E0969587952A95E1F7880FE9
:1011A000991F880F991FFB01E80FF91F50E040E0DD
:1011B00080E0219130E00A2E02C0369527950A94EE
:1011C000E2F721703327042E01C0220F0A94EAF7B8
:1011D000822B4F5F5F4F4430510559F70895262FFA
:1011E000963070F48F3060F4682F70E08FE0989F35
:1011F000600D711D11244CE153E0822F0E949B0869
:101200000895292F963068F48F3058F490E06CE1FF
:1012100073E03FE0239F800D911D11240E94C808B8
:10122000089580E00895B0E0A0E0E9E1F9E00C94D1
:10123000B52D7C0100914C0310914D0380914E031C
:1012400090914F03082B192BCFE0D0E0CC24C3940E
:10125000D12CBC2EC6010C2E02C0880F991F0A94F7
:10126000E2F780239123892B49F4219790F7B12C41
:101270008B2DCDB7DEB7E9E00C94D12DB7018C2FC3
:101280000E94FF0F019789F3F3CFCF93DF93EC0117
:101290000E941309BE010E94FF0FDF91CF910895B4
:1012A0001F93CF93DF93EB0190911B03992339F0A8
:1012B000CB010E944509DF91CF911F9108958823AA
:1012C00069F0CB010E941309182F682FCE010E94EC
:1012D000EF08BE01812F0E94FF0FEDCFCB010E94CE
:1012E0000109182FF6CF1F93CF93DF93C0915003BE
:1012F00016E0809151038C1304C0DF91CF911F91B0
:101300000895D0E01C9FF0011D9FF00D1124EE5AAE
:10131000FC4F4081518162817381848195810E945B
:10132000FB072196C770E5CF40918203509183035C
:101330006091840370918503809186039091870367
:101340000E94FB070895209150039091510356E0AD
:10135000291302C080E0089530E0529FF001539FAE
:10136000F00D1124EE5AFC4F7181761306C0708186
:10137000781303C07281741304C02F5F3F4F27702E
:10138000E7CF81E008951F93CF93DF938091870388
:10139000807F09F04BC080918403882309F446C004
:1013A00080915003C0915103409182035091830377
:1013B0006091850370918603D42FD52316E0C8175A
:1013C000A9F190E061157105A9F1DF3F99F1189F2E
:1013D000F001199FF00D1124DF01AE5ABC4F119698
:1013E0002C911197251326C02C91241323C01296FB
:1013F0002C91129721111EC013962D913C91261B02
:10140000370B283C3105B0F4809187038F708061E1
:1014100080938703E95AFC4F80818F7080618083BD
:1014200082E893E00E947E070E947309DF91CF91CA
:101430001F91089501968770C2CFA1E1B0E0E3E269
:10144000FAE00C94B22D8C0185E0F801DE011D96C6
:1014500001900D928A95E1F7F801F28082E8A82EBA
:1014600083E0B82E409185035091860341155105C4
:1014700009F45AC19091820320918303892F82231A
:101480008F3F09F451C1C080D18083809480E09067
:101490008403B401641B750BEE2009F4F6C080913F
:1014A0008703382F307F683C710508F0AFC03111D9
:1014B0007AC0EF2C2D1116C09C1114C0F11012C06F
:1014C0008F708061809387030E949409C5010E94F8
:1014D0007E0780918703F80185838E2D6196ECE06D
:1014E0000C94CE2D81149104C9F18C2D8D218F3F48
:1014F000A9F181E08F2580FF05C04F2D6D2D8C2D2A
:101500000E94A3098114910459F18C2D8D218F3FE4
:1015100039F181E08F25F82FF170BF2E80FF39C09F
:101520004F2D6D2D8C2D0E94A309A82E811131C045
:10153000CD86DE868D859E850E944509292F2295C0
:101540002F70243078F49F702230A8F09923B9F0DE
:10155000F8019581907F99F4EA2CBFCF80E0CBCF42
:1015600080E0D9CF2A5F2F70223068F0C8010E9436
:101570007E07AB2CF1CF992311F0882369F3805EAD
:10158000883050F3F3CF803F38F3815F833070F7BA
:10159000E3CFFF2009F4A1CF80918703816080937E
:1015A0008703E12C9ACF2D1105C09C1103C0FF20A9
:1015B00009F486C0C8010E94DE07882319F1FF20C4
:1015C00009F180918703803270F02091820330917D
:1015D000830338872F8319869B868A868C87CE0162
:1015E00007960E947E0786E0F801A2E8B3E001902A
:1015F0000D928A95E1F70E94C3090E949409EE2496
:10160000E3946BCFC8010E947E07F9CF311114C05B
:10161000782D998A888AA6016F2D89890E94F10701
:1016200082E893E00E947E0786E0F50111928A9598
:10163000E9F70E949409B5CF2D110EC09C110CC082
:10164000F1100AC08583C8010E947E0786E0F5017B
:1016500011928A95E9F741CFC8010E94DE078823DD
:1016600089F2FF2079F280918703803208F4BBCFA2
:1016700020918203309183033A8329831B829D82C8
:101680008C828E83CE010196ACCF683C710508F048
:101690003DC0EF2CFF2009F4B5CF2D1129C09C11BE
:1016A00027C08091870380FD1AC0982F907FB9F0E2
:1016B0008583903F31F0982F907F905F8F70892BBA
:1016C0008583C8010E947E0786E0F801A2E8B3E0A6
:1016D00001900D928A95E1F70E949409FECE86E072
:1016E000F801A2E8B3E001900D928A95E1F7F5CEFA
:1016F000C8010E94DE07811176CF80918703816047
:1017000080938703C8010E947E07E7CE782D998ACF
:10171000888AA6016F2D89890E94F10786E0F5016C
:1017200011928A95E9F7D8CFFF2009F46BCFC80151
:101730000E94DE07E82E882309F464CF86E0F801D2
:10174000A2E8B3E001900D928A95E1F782E893E078
:101750000E94A3040E94C309BFCFACE0B0E0E3EB5A
:10176000FBE00C94BB2D4F83588769877A878B8762
:101770009C87CE0107960E941D0A8823B1F08A85B6
:101780009B85892B39F04F815885842F85238F3F86
:1017900009F06CC016E080915003909151038913B9
:1017A00043C02C96E3E00C94D72D86E0FE013796DB
:1017B000DE01119601900D928A95E1F78A859B854D
:1017C000892B41F38F81988589238F3F19F32091CD
:1017D000510330E0C9010196877099274091500369
:1017E0004817190671F40E94BE0710925103109217
:1017F000500386E0E2E8F3E0DF011D928A95E9F705
:10180000C9CF96E0929FD001939FB00D1124AE5A9C
:10181000BC4FFE01319601900D929A95E1F78093AD
:1018200051030E947309B6CF819FC00111248E5AC3
:101830009C4F0E941D0A882309F4B3CFE091500306
:101840001E9FF0011124EE5AFC4F408151816281AC
:101850007381848195810E94FB078091500390E001
:101860000196877099278093500395CF69857A8573
:101870008B859C850E94FB078DCF682F80915F022E
:10188000909160020E9435250895682F80915F0233
:10189000909160020E944325089580915F0290918B
:1018A00060020E94512508958091A8038595859531
:1018B000859508958091A803877008959091A80355
:1018C000977081E009F480E008958091CB0308953A
:1018D0009091CB03892B8093CB03089580959091B1
:1018E000CB0398239093CB0308951092CB030895D4
:1018F0009091CA03892B8093CA0308958095909193
:10190000CA0398239093CA0308951092CA030895B6
:101910008091A903089508950E948B0C08959091D9
:101920008D0492FF08C09091A903981721F080932D
:10193000A9030E948C0C08958091A903882329F0A3
:101940001092A90380E00E948C0C0895CF93DF933E
:10195000E0915F02F09160028091CB038083E0917F
:101960005F02F091600280819091CA03892B80838D
:101970009091A903992381F0E0915F02F0916002B8
:101980008081892B808380915F02909160020E9408
:10199000A12481110E949C0CC0915F02D091600231
:1019A00040E250E068E873E0CE010E94EC2D892B04
:1019B00059F080E2FE01A8E8B3E001900D928A950B
:1019C000E1F7CE010E942F24DF91CF910895089571
:1019D0000E94E70C089590918D0492FF11C098E049
:1019E000899F90011124622B6093A8030E944D08E7
:1019F0008091A8038595859585950E94E80C0895AA
:101A00000E944D0808951092A80380E00E94E80CFF
:101A100008959091A803809589238093A803282F87
:101A2000277091F4282F082E000C330B9217130601
:101A300059F090918D0492FF07C085958595859505
:101A40000E945D080E94030D089590918D0492FB01
:101A5000222720F9281769F080FB92F990938D04D2
:101A600080918C0490918D040E946D0D82E00E9403
:101A7000090D089580918D0482FB882780F991E0FB
:101A800089270E94250D089581E00E94250D089563
:101A900080E00E94250D08956FEF7FEF90E080E0D9
:101AA0000E944E2E089590E080E00E941A2E21E0C0
:101AB000873E9E4F09F020E0822F089582E090E05B
:101AC0000E94122E089583E090E00E94122E089545
:101AD00084E090E00E941A2E0895BC0184E090E01A
:101AE0000E944E2E0895AB01BC018FE090E00E9451
:101AF000422E0895AB01BC0183E190E00E94422E8A
:101B0000089560E070E0CB010E947A0D089560E0D6
:101B100070E0CB010E94730D0E94810D089567EE65
:101B20007EEF90E080E00E944E2E60E082E090E048
:101B30000E94302E60E083E090E00E94302E1092F0
:101B40004F0310924E0360E074E184E090E00E9445
:101B50004E2E60E086E090E00E94302E6FEF87E02E
:101B600090E00E94302E40E050E0BA0188E090E022
:101B70000E94422E60E08DE090E00E94302E40E016
:101B800050E0BA0188E190E00E94422E60E087E1D7
:101B900090E00E94302E40E050E0BA018CE190E0ED
:101BA0000E94422E70E060E080E290E00E944E2EA3
:101BB00040E050E0BA0188E190E00E94422E0E948D
:101BC000870D08950E948F0D0895682F8EE090E094
:101BD0000E94302E0895A5E0B0E0E1EFFDE00C9406
:101BE000BA2D0E9413268C018091CC039091CD03D5
:101BF00080179107A1F08FEF89838A831B820E944F
:101C000013268160782F9D838C8349815A816B8153
:101C10008D810E946E041093CD030093CC03259612
:101C2000E4E00C94D62D0E941F266093DE0370938F
:101C3000DF038093E0039093E1036093DA037093F2
:101C4000DB038093DC039093DD03089508950895EA
:101C50000E94270E089508950E942B0E089581E09A
:101C6000089589EE90E10E9415240E94260E0E949C
:101C7000280E08950E942F0E08950E943A0E08958E
:101C8000089508950E94400E0E94410E08950E94FA
:101C900005110E9442040E94D91D08950E940A263F
:101CA0000E94E4110E94470E0E942C0E0895A5E0A8
:101CB000B0E0EDE5FEE00C94B02D0E942F0E8111F6
:101CC0000CC00E94EB0D0E94211D0E9418140E945E
:101CD00055042596EEE00C94CC2D0E94FA112EECC2
:101CE000822E23E0922E640110E0F601E190F19043
:101CF0006F01812F0E942B111F5F163009F450C015
:101D0000E816F90691F38091E20381FD0E943411F7
:101D10000E943D0E682E10E0812F0E942B117C0145
:101D2000F401A190B1904F018A159B0591F100E05B
:101D3000CC24C394D12CAE24BF24C5018C219D2179
:101D4000892BF1F077247394C7018C219D21892B75
:101D500009F4712C662079F009831A837B820E9432
:101D600013268160782F9D838C8349815A816B81F2
:101D70008D810E946E04472D602F812F0E94D91BF8
:101D80000F5FCC0CDD1C0F30C1F6F4013297F182ED
:101D9000E0821F5F163009F0BFCF0E94130E93CF71
:101DA000E816F90609F0AFCF8CCF1F93CF93DF93DE
:101DB0000E940410EC01C11580E5D807F0F5C115AB
:101DC00080E4D80708F09CC0C03ED10520F5CD3C8A
:101DD000D10508F082C0C83AD10578F4C53AD105DA
:101DE00008F073C0C130D10519F1209709F1C43052
:101DF000D105F0F4D0E0C0E01BC0C33CD105D0F762
:101E0000C85AD0E0CC0FDD1FCA54DD4F0990D881ED
:101E1000C02DD4640DC0C11580E2D80708F0D1C030
:101E2000C11581E0D80708F05AC0C83ED10510F7A7
:101E3000CE01DF91CF911F910895C03682E5D8077A
:101E400018F5C03482E5D80708F06BC0C03282E5CF
:101E5000D80708F05FC0C11582E5D80708F497C01D
:101E60002C2F2695269580E2289F900111248C2FF7
:101E70008370C1E0D0E002C0CC0FDD1F8A95E2F78D
:101E8000C22BD32BDD68D4CFC03A82E5D80760F4EB
:101E9000C03882E5D80708F459C0CF71D0E0DC2FF4
:101EA000CC27C46FD06AC4CFC03C82E5D80708F401
:101EB00062C0C03E82E5D80708F09CCFDC2FCC275B
:101EC000CC27DF71C06FD06AB3CFC55AD0E0C45100
:101ED000DD4FC881D0E0D064ABCFD065A9CF8D2FC6
:101EE0000E94A610182FCE0199270E940410C12F1E
:101EF000D0E0DC2FCC27CC27DF71C82BD92B98CF93
:101F0000CE0199270E940410CC27DF70C82BD92B53
:101F1000D06A8ECFCF71D0E0DC2FCC27C16FD06AD2
:101F200087CF2C2F26952695277080E2289F900139
:101F300011248C2F8370C1E0D0E002C0CC0FDD1FD4
:101F40008A95E2F7C22BD32BDC6872CF2C2F269513
:101F50002695277080E2289F900111248C2F837092
:101F6000C1E0D0E002C0CC0FDD1F8A95E2F7C22BA2
:101F7000D32BDA685DCF8C2F8F710E94A610C82FEB
:101F8000D0E0DC2FCC27CC27DF71D06251CF8C2F53
:101F90008F710E94A61055E0D695C7955A95E1F726
:101FA000CF70D0E0DC2FCC27282F30E084FF05C095
:101FB00044E0220F331F4A95E1F7C22BD32BD0699F
:101FC00037CF8D2F8F710E94A610182FCE01992721
:101FD0000E940410C12FD0E0DC2FCC27CC27DF716A
:101FE000C82BD92BD2CF462F763030F46F3020F467
:101FF000672F0E945603089590E080E008950E94A4
:10200000F30F0E94D50E089582389105B9F1B0F40E
:102010008133910509F47DC048F48932910509F4B2
:102020006DC08A32910509F47BC00895853391050E
:1020300009F45FC08933910509F10895833E910544
:10204000D9F138F4803E910529F1823E910579F16C
:102050000895863E9105D9F1873E910509F43EC069
:10206000843E910541F520918D0421FF24C080918B
:102070008C0484FD19C087EE90E0089520918C04B3
:10208000237009F05AC020918D0423FF14C089E207
:1020900090E0089520918C0420FD38C030918D048B
:1020A00030FF09C024FF43C090E080E008952091F4
:1020B0008C0422FDF7CF089520918C0422FD3AC0B4
:1020C00030918D0430FD39C024FFF5CFEDCF209144
:1020D0008C0423FFF0CF24FDE7CFCDCF20918C04DB
:1020E00023FD2EC030918D0431FFEECF84EE90E0C1
:1020F000089520918C0425FFDECFC9CF20918C0458
:1021000025FD21C020918D0423FFD5CF89E390E0E8
:10211000D2CF20918C0426FFCECF8AE290E00895A2
:1021200020918C0426FFC7CF81E390E0089583EED1
:1021300090E0089582EE90E0089580EE90E008959A
:1021400086EE90E0089585E390E0089590918C04E8
:1021500092FF06C0282F28712830F9F4877F846009
:1021600093FF06C0282F28712831F1F4877E8461FF
:1021700020918D0420FF06C0382F38713830D9F4F3
:10218000877F816021FF06C0282F28712831D1F474
:10219000877E816194FD877E0895282F24712430E5
:1021A000F9F68B7F8860DCCF282F2471243101F76A
:1021B0008B7E8861DDCF382F3171313019F78E7FFA
:1021C0008860E0CF282F2171213121F78E7E886130
:1021D000E1CF80E008950E944C0D08950E94FA110D
:1021E0008FEB9DE50197F1F700C000000E94FA1106
:1021F00080E00E942B1180FF04C00E94EB100E941F
:102200007A2608950E94EE1008950E94530D8111C0
:1022100002C00E94E20D0E945E0D8093E2030E94C4
:10222000680D90938D0480938C040E9402110E948B
:10223000630D90E00E94110880914C0390914D0332
:102240000E943208089508950E9423110895089568
:102250000E9427110895E82FF0E0EE0FFF1FE656C9
:10226000FB4F808191810895089580EA8A95F1F766
:10227000089500C008950E9435110895F894E82F3C
:10228000E295EF70F0E031A1282F2F7081E090E00F
:1022900001C0880F2A95EAF7982F9095932391A370
:1022A00092A1892B82A3789408950F931F93CF93C3
:1022B000DF93CEEFD2E089918F3F11F00E943E1163
:1022C00083E0C430D807B9F7CFEED2E00EEF12E0CA
:1022D00089918F3F11F00E943E110C171D07C1F725
:1022E000DF91CF911F910F910895AF92BF92DF922E
:1022F000EF92FF920F931F93CF93DF938C01D62E13
:10230000C62FD0E0CE0182509D4F7C01FC01208180
:102310002F3F09F44CC0F894E22FE295EF70F0E003
:1023200031A12F7081E090E001C0880F2A95EAF773
:10233000932F982B91A392A18095892382A37894BF
:102340000E943911EFEEF2E041E050E0B12CA12CF7
:1023500021912F3FB1F1A22FA295AF70B0E09096DE
:102360008C9190E02F7002C0959587952A95E2F7A1
:1023700080FD27C0CA01A82AB92A440F551F82E050
:10238000EE3FF80729F7F70180818F3F11F00E9497
:102390003E1161E0A114B10409F460E08D2D0E94AA
:1023A0003B11CC0FDD1FC00FD11FB982A882DF9176
:1023B000CF911F910F91FF90EF90DF90BF90AF9062
:1023C000089590E080E0D7CF0E9455118CE0EAE9B3
:1023D000F4E0DF01982F1D929A95E9F7EEE8F4E01A
:1023E000DF011D928A95E9F786E00E9435120E946E
:1023F00024110895ACE0B0E0E0E0F2E10C94B92DD6
:102400008E010F5F1F4F8CE0F80111928A95E9F75A
:10241000F12C6F2DC8010E947511F394F6E0FF12A4
:10242000F8CF4CE050E0B8018EE894E00E94EC2D2B
:1024300021E0009709F420E0892B41F08CE0F801BD
:10244000AEE8B4E001900D928A95E1F746E06AE9C2
:1024500074E08EE894E00E943612182F0E94281132
:10246000812F2C96E5E00C94D52D0895CF92DF9224
:10247000EF92FF921F93CF93DF936C017B01C42FE8
:10248000222349F081E08093E5030E941326909374
:10249000E4038093E3031091E50311110AC010E0F7
:1024A000812FDF91CF911F91FF90EF90DF90CF9020
:1024B00008958091E3039091E4030E942B260397F3
:1024C00070F3D0E0CC0FDD1FAE01B601C7010E9452
:1024D000EC2D892B41F0AE01B601C7010E94F92D08
:1024E0001092E503DDCF10E0FBCF0E9413280E947D
:1024F0004E0E0E94202808950E9425280E94570E03
:102500000E943F2808950E94AC250E94F9270E944E
:10251000310E0E9475120E947C120E94420EFBCF67
:102520008091EC0380FF0DC06091660270E0660F41
:10253000771F6038710570F56115710569F1862F97
:10254000089581FF07C06091660284E0689FB00132
:102550001124EFCF6091660282FD0AC08091EB03E7
:102560008823A9F02091650260916602821710F01D
:1025700088E0ECCF869FC001112433E0880F991FBB
:102580003A95E1F7622F70E00E94512DD2CF68E0BA
:1025900070E0D5CF8FE7089581E008958091EC0336
:1025A00080FF0CC06091620270E07595679575952B
:1025B00067956115710549F1862F089581FF06C061
:1025C0006091620270E075956795F3CF6091620249
:1025D00082FD0BC09091EA039923A1F06091610202
:1025E00080916202961738F0682F70E060387105AC
:1025F00000F38FE70895899FC001112470E00E94C5
:10260000512DF4CF61E070E0D7CF81E008958D3C8B
:1026100031F40E94901281958093F00308958E3CCE
:1026200019F40E949012F8CF8F3C31F40E9490125E
:1026300081958093EF030895803D19F40E949012D4
:10264000F8CF893D29F40E94CE128093F1030895BA
:102650008A3D21F40E94CE128195F7CF8B3D31F453
:102660000E94CE1281958093F20308958C3D19F457
:102670000E94CE12F8CF9FE2980F983070F4815DDF
:10268000990B21E030E001C0220F8A95EAF7809192
:10269000EE03822B8093EE0308958D3D31F48091FB
:1026A000EC0381608093EC0308958E3D21F48091CA
:1026B000EC038260F7CF8F3DB9F78091EC03846023
:1026C000F1CF4091EF038D3C59F48091F00387FFE7
:1026D0000DC01092F00341110BC01092EB0308C023
:1026E0008E3C81F48091F00318169CF3442381F012
:1026F0008091F1039091F203892B09F05AC0109256
:10270000EA0308958F3C49F447FFF0CF1092EF039E
:102710008091F0038111ECCFE0CF803D19F41416C5
:10272000ACF3E4CF9091F103893D29F41916F4F646
:102730001092F103DBCF8A3D19F497FFD7CFF8CF82
:102740009091F2038B3D29F497FFD0CF1092F203C2
:10275000CDCF8C3D19F41916CCF3C8CF9FE2980F5A
:10276000983090F4815D990B21E030E0B90102C00E
:10277000660F771F8A95E2F7CB0180959091EE0363
:1027800089238093EE03B2CF8D3D31F48091EC0329
:102790008E7F8093EC03AACF8E3D21F48091EC03D1
:1027A0008D7FF7CF8F3D09F0A1CF8091EC038B7F18
:1027B000F0CF08950E9413269C019091EF03809121
:1027C000F003982B21F03093E9032093E8039091D4
:1027D000F1038091F203982B21F03093E7032093CB
:1027E000E6038DEE93E00E944924089586E0EDEE25
:1027F000F3E0DF011D928A95E9F71092EB03109246
:10280000EA031092EC030895FC01828181110EC04D
:10281000838181110BC08481811108C091E0858181
:10282000811101C090E0892F8170089581E0FCCF73
:10283000A6E0B0E0EEE1F4E10C94BB2D86E0EDEE15
:10284000F3E0DE01119601900D928A95E1F7109266
:10285000EF031092F0031092F1031092F2038B81B8
:102860009C81892B89F08091E8039091E9030E9473
:102870002B26AC019091EB039923C9F1809167025B
:102880008417150608F440C08D819E81892B91F034
:102890008091E6039091E7030E942B26AC01909172
:1028A000EA03992309F471C0809163028417150625
:1028B00008F479C0BE016F5F7F4F8DEE93E00E94F8
:1028C0006325811105C08DEE93E00E9404148111EF
:1028D0000E94DA1386E0FE013196ADEEB3E001907E
:1028E0000D928A95E1F72696E3E00C94D72D20917E
:1028F00068028AE0289F900111242417350720F6EA
:102900009F5F9093EB0302C09F3FD1F71B81112380
:1029100059F00E9490129FEF11160CF491E0899FDC
:10292000802D11248093EF031C81112359F00E9404
:1029300090129FEF11160CF491E0899F802D1124C5
:102940008093F0033091EF03332309F49DCF20915E
:10295000F003222309F498CF45EB3403C00111247E
:10296000992359F09093EF0345EB24039001112430
:10297000332339F03093F00387CF81E08093EF0366
:10298000F3CF81E08093F0037FCF209164028AE04F
:10299000289F900111242417350708F08BCF9F5FE3
:1029A0009093EA0302C09F3FD1F71D81112359F094
:1029B0000E94CE129FEF11160CF491E0899F802D9A
:1029C00011248093F1031E81112359F00E94CE122D
:1029D0009FEF11160CF491E0899F802D11248093B4
:1029E000F2033091F103332309F464CF2091F20311
:1029F000222309F45FCF45EB3403C001112499234E
:102A000059F09093F10345EB2403900111243323F3
:102A100039F03093F2034ECF81E08093F103F3CF8E
:102A200081E08093F20346CFEF92FF920F931F93C2
:102A3000CF93DF93EB01E82FD1110EC0442321F097
:102A4000F0E0E059FC4FE4916E2F7E2F8E2FCDB732
:102A5000DEB7E6E00C94D42D0D2F10E0282F30E0E7
:102A6000442329F020593C4FF901249130E0F6E04D
:102A7000CF9FC0011124EFEFF0E0BF010E943D2D78
:102A8000AB018C2F90E0880F991FA5E5A49FB001A2
:102A9000A59F700D1124861B970B982F990F980FE7
:102AA000BF01601B710B629FD001639FB00D729FCD
:102AB000B00D11248B2F9D9FB0011124672F772714
:102AC000EF01C61BD70BBE01629FE001639FD00DD3
:102AD000729FD00D11247F01E91AF108E09EB00128
:102AE000E19E700DF09E700D1124672F7727E61B75
:102AF000F70BE29F8001E39F100DF29F100D112450
:102B0000E12F722F4230510599F048F441155105DB
:102B100069F04130510581F0EB2F8D2F07C0443013
:102B2000510569F080F046305105B1F76E2F8FCF17
:102B3000E22F7B2F812FFACFE22F7D2FF7CFEB2FC4
:102B4000822F712FF3CF7B2F822FED2FEFCF41E01C
:102B50000E941415089530E020E0869F212D969F55
:102B6000200D311D1124C9010895AC018230910559
:102B700008F408959FEF413E8EE1580740F49A0112
:102B800095E0369527959A95E1F798E0920F61E0E8
:102B9000E62FE90FFF27FF1F9F0135952795822F0D
:102BA000229FF001239FF00DF00D11244E175F07B7
:102BB00038F49FEF920F961758F78FEF860F08950E
:102BC0002F3FE9F361E0620FF6CFE82F86FDE09535
:102BD0002E2F2F7086FD2F5FE695E695E695E67021
:102BE000F0E0EC5FFC4F9181929F902D212D1124FC
:102BF00092959F702295207F922B2081920F87FDC6
:102C0000919580E8890F0895622F0895E42FF0E0F0
:102C1000EE0FFF1FE65AFE4F6081621B0895E42FFE
:102C2000F0E0EE0FFF1FE55AFE4F6081621B089532
:102C3000EF920F93972F23E0029FB0011124759517
:102C400067956E0D792F0F91EF9008950F931F9355
:102C500010E0F801EE0FFF1FE65AFE4F90819C55E1
:102C600097FD9195000F111FF801E55AFE4F008165
:102C70000152110B2003F001219FF00D112408E3F4
:102C800010E0091B110997FD139540039001419F26
:102C9000300D1124E20FF31F9F01220F331F2E0F5F
:102CA0003F1F37FF02C021583F4F220F232F221F03
:102CB000330B620F1F910F9108954095282F429F6B
:102CC000412D1124842F089522E8241B08F420E0CC
:102CD000620F0895EF92FF920F93970195E0099F7D
:102CE000200D311D11242F3F310519F010F02FEF69
:102CF00030E02095382F320F08F43FEF832F0F91EB
:102D0000FF90EF900895EF92FF920F931F930E0D97
:102D10001F2D111DF90137FF03C0F195E195F10950
:102D200024E0EE0FFF1F2A95E1F7EF3FF10519F0C0
:102D300014F0EFEFF0E09A0157FF03C031952195B1
:102D4000310994E0220F331F9A95E1F72E173F07C0
:102D50000CF4F901E00FF11FEF3FF10519F010F04D
:102D6000EFEFF0E0E095282F3E2F230F08F42FEF30
:102D7000822F1F910F91FF90EF900895EF92FF9295
:102D80000F939701201B31092F3F310519F010F0E7
:102D90002FEF30E0322F3095482F430F08F44FEFDC
:102DA000842F620F0F91FF90EF900895EF92FF92A2
:102DB0000F939701201B31092F3F310519F010F0B7
:102DC0002FEF30E02095382F320F08F43FEF832F9C
:102DD0000F91FF90EF9008959091F303892B8093CA
:102DE000F3030895FC019B01009729F480E077FF2D
:102DF0002BC080E80895AC0197FF04C044275527F5
:102E0000481B590BB901640F751F37FD10C0241BF7
:102E1000350BC901A5E0880F991FAA95E1F70E941B
:102E2000512D80E2861BF7FF0FC081950895CB01DD
:102E300065E0880F991F6A95E1F7BA01621B730B71
:102E40000E94512D80E6EECF0895EF920F931F93CD
:102E5000CF93DF93D62FC72F182FC9010E19010F5B
:102E6000BA010E94F216081B202F219F212D112448
:102E7000822F6D2F7C2FDF91CF911F910F91EF90BB
:102E800008950F93CF93DF93D72FC82FC901BA01AD
:102E90000E94F216682F600F7D2F8C2FDF91CF914B
:102EA0000F910895EF920F93CF93DF93D72FC82FF1
:102EB000C9010E19BA010E94F216602F681B7D2FFE
:102EC0008C2FDF91CF910F91EF90089546E050E065
:102ED0006CE170E086EA94E00E94202E1092F303E9
:102EE00008950E94A7150895E6EAF4E085E180833D
:102EF00080917A0290917B02A0917C0281839283DF
:102F0000A3838FE784838FEF85830E9466170895DC
:102F100080E008950F931F93CF93DF93C82FD62F90
:102F20008A010E9488179FE0C99FB0011124605058
:102F30007F4F6D0F711DFB0190819F3F29F0F801BC
:102F4000E80FF11D90838F5FDF91CF911F910F915B
:102F50000895E0911203F091130309950895E0910B
:102F60000E03F0910F0309950895B0E0A0E0EBEB9C
:102F7000F7E10C94AF2D5C014B01FC01C08182E1B3
:102F8000C89FC02D112412E11C0FF12E183510F02E
:102F900037E5F32E6091AA0466958091AC04909178
:102FA000AD040E94AB15582ED0E0CF1548F081E05B
:102FB000173508F080E0CDB7DEB7EFE00C94CB2DED
:102FC000FE01E85FFD4F8081F50191818923C9F100
:102FD000CE01880F991F80509F4FFC01E65AFF4F8A
:102FE0002081422F4C55550B6A01855A9F4FFC0199
:102FF0008081282F2152330B3901449F9001459F36
:10300000300D300D1124669CC001679C900D900D11
:103010001124820F931F0E94B515082F6091A704F9
:103020007091A8048091A904E52C9301A601F401F4
:1030300009950E947117462F282F672FCE010E94F5
:10304000AF172196B2CF65E277E10E94B5170895D8
:1030500068E176E10E94B517089562E577E10E9484
:10306000B5170895B0E0A0E0E8E3F8E10C94B42DC2
:103070006C017B01FC01C08182E1C89FC02D11243D
:1030800012E11C0FB12E183510F037E5B32E609108
:10309000AA0466958091AC049091AD040E94AB1592
:1030A000A82ED0E0CB1548F081E0173508F080E07D
:1030B000CDB7DEB7EAE00C94D02DFE01E85FFD4FFE
:1030C0008081F6019181892311F1CE01880F991F2A
:1030D00080509F4FFC01E55AFF4F20812152330B56
:1030E000865A9F4FFC0140814C55550B6091A704B7
:1030F0007091A8048091A9040A2DF70109950E94F6
:103100007117462F282F672FCE010E94AF172196E7
:10311000C9CF61E477E10E9432180895B0E0A0E0E1
:10312000E4E9F8E10C94B52D7C018B01FC01C08130
:1031300082E1C89FC02D112492E1D92EDC0ECD2C46
:10314000F7E5FD1510F487E5C82E6091AA04669591
:10315000669521E0620F08F46FEF8091AC049091C6
:10316000AD040E94AB15B82ED0E0CC1550F081E034
:1031700096E59D1508F480E0CDB7DEB7E9E00C9444
:10318000D12DFE01E85FFD4F8081F70191818923F8
:1031900091F06091A7047091A8048091A9042B2D4F
:1031A0004C2FF80109950E947117462F282F672F81
:1031B000CE010E94AF172196D8CF64E076E10E943D
:1031C0008E18089566E076E10E948E1808956FE0EB
:1031D00076E10E948E180895B0E0A0E0E2EFF8E1F9
:1031E0000C94B12D5C016B01FC01C08182E1C89F90
:1031F000C02D112412E11C0F912E183510F037E567
:10320000932E6091AA04669566958091AC04909186
:10321000AD040E94AB15F82E80E48F0D0E94E515D9
:1032200090E8892E880E8F2D0E94E51520E8722ED9
:10323000780ED0E0C91548F081E0173508F080E03D
:10324000CDB7DEB7EDE00C94CD2DFE01E85FFD4F6C
:103250008081F50191818923A1F06091A70470918B
:10326000A8048091A904EF2C0C2F272D482DF601DE
:1032700009950E947117462F282F672FCE010E94B3
:10328000AF172196D7CF66E276E10E94EC18089539
:10329000B0E0A0E0EEE4F9E10C94B42D8C017B01E8
:1032A000FC01C08182E1C89FC02D112422E1B22E11
:1032B000BC0EAB2CF7E5FB1510F497E5A92E209179
:1032C000AA0431E0230F08F42FEF30E050E040E093
:1032D0006FEF7FEF80E090E00E94872D6901D0E0E2
:1032E0002C2FCA1550F081E0F6E5FB1508F480E0BC
:1032F000CDB7DEB7EAE00C94D02DFE01E85FFD4FBC
:103300008081F8019181892311F14091B0044150ED
:10331000042E000C550B47FF1CC0C6016091AA0487
:1033200021E0620F08F46FEF0E94AB15AC016091D1
:10333000A7047091A8048091A904F70109950E943F
:103340007117462F282F672FCE010E94AF172196A5
:10335000C7CFFA01E055FB4F818982130AC0FA01F9
:10336000EE0FFF1FE055FB4F818D928D8C159D0553
:10337000A8F241505109CFCF6DE576E10E9448197E
:10338000089564E676E10E9448190895ABE0B0E044
:10339000ECECF9E10C94AC2D8C832B015F834E8314
:1033A000FB01F08182E1F89F802D112489838E5EDC
:1033B0008A838B83883510F027E52B833091B00406
:1033C0003D839981892F90E09B878A87880F991F79
:1033D000FC01E65AFE4F6F01FC818F2F90E09C01AB
:1033E0002F5F3F4F39872887EB81FA85FE1748F01A
:1033F00081E02A81273508F080E02B96E2E10C94E9
:10340000C82DEA85FB85E85FFD4F8081F20191813F
:10341000892301F12090A7043090A80428853985DC
:1034200020553B4F39013C81398310E029813D8192
:103430002317C8F02091A904129F112D1124B10166
:10344000812F0E947117462F282F672F8A859B8511
:103450000E94AF178A859B8501969B878A8792E099
:10346000C90ED11CC1CFF30181913F01F601A080AB
:10347000A81ABB088180F3018781881A9908AA9C41
:103480009001AB9C300D300D1124889CC001899CAB
:10349000900D900D1124820F931F0E94B515082FD7
:1034A0006091AA0421E0620F08F46FEFF301EE0FC0
:1034B000FF1FE05BF440858996890E94AB157C0173
:1034C0009401A501B101812FEE81FF8109951B01B6
:1034D000F981FF5FF983182FA9CF2091B00431E063
:1034E000231B08F420E04AE656E1BC01822F0E942B
:1034F000C61908952091B00431E0231B08F420E0A0
:1035000043E856E1BC01822F0E94C619089520911C
:10351000B00431E0231B08F420E04EEB56E1BC017F
:10352000822F0E94C619089546ED56E1BC0180E045
:103530000E94C6190895B0E0A0E0E1EAFAE10C9417
:10354000B52D7C01FC01C08182E1C89FC02D1124F2
:1035500012E11C0F012F183508F007E56091A70450
:103560007091A8048091A9040E947117D62EC72ECD
:10357000B82ED0E0C01748F081E0173508F080E0A1
:10358000CDB7DEB7E9E00C94D12DFE01E85FFD4F29
:103590008081F7019181892331F02B2D4D2D6C2DE8
:1035A000CE010E94AF172196E5CFB0E0A0E0EBED91
:1035B000FAE10C94B52D8C01FC01C08182E1C89F19
:1035C000C02D112492E1F92EFC0EEF2CF7E5FF152A
:1035D00010F487E5E82ED090A704D091A804C090FD
:1035E000A9046091AA046695669566958091AC04DD
:1035F0009091AD040E94AB150E94E515805887FD9F
:103600008195880F282F3C2D239F212D1124822F57
:103610006D2D7D2F0E947117D62EC72EB82ED0E0AB
:10362000CE1550F081E026E52F1508F480E0CDB7E7
:10363000DEB7E9E00C94D12DFE01E85FFD4F8081FB
:10364000F8019181892331F02B2D4D2D6C2DCE0168
:103650000E94AF172196E4CF0F931F93CF93DF9370
:10366000EC01FC01E85FFD4F80816823D1F10091FE
:10367000A8041091A9044091A704E42FF0E0609100
:103680006F027091700285E098E0689F9001699FD9
:10369000300D789F300D1124275E394C3093700225
:1036A00020936F02CF018C549F4F68E671E00E9417
:1036B000512D8E1B9F0B97FD03969595879595959C
:1036C0008795230F2370642F289F600D1124702F7E
:1036D000812F0E947117462F282F672FCE010E943D
:1036E000AF17DF91CF911F910F910895FF920F9324
:1036F0001F93CF93DF938C01FC01C08182E1C89FAF
:10370000C02D112482E1F82EFC0E8281D0E08111BF
:1037100040C06091AA0420E1620F08F46FEF80912D
:10372000AC049091AD040E94AB156AE070E00E9479
:103730003D2D892BF1F440916F025091700225E0EC
:1037400038E0429FC001439F900D529F900D11247D
:10375000875E994C9093700280936F02890FF7E512
:103760008F9FC0011124F8016181892F90E00E9490
:103770002C1B81E026E52F1508F480E0CDB7DEB7DD
:10378000E5E00C94D52DF8016181CE010E942C1B3F
:1037900021968F2DF7E5FF1508F487E58C171D0698
:1037A00009F08CF7E6CFE0911003F0911103099531
:1037B0000895CF92DF92FF920F931F93CF93DF93E1
:1037C000CDB7DEB728970FB6F894DEBF0FBECDBFDA
:1037D000182F062FF42E0E943A0E882309F44CC0AD
:1037E000FF2009F457C0AE014F5F5F4F602F812F5C
:1037F0000E948A17F82E0F2D10E08091F403800F9D
:10380000912F911D09976CF188E090E06C01C01A2E
:10381000D10AB8016B507C4FA60185EF93E00E945E
:10382000F92DB80163507C4FA6018DEF93E00E9403
:10383000F92DA601440F551FB801660F771F635F6E
:103840007B4F8DE094E00E94F92DB8016B5F7B4FB8
:10385000A60185E094E00E94F92D88E08F198093FD
:10386000F4031091F403DE01119640E0842F810FE0
:10387000F41212C08093F40328960FB6F894DEBFBA
:103880000FBECDBFDF91CF911F910F91FF90DF90C1
:10389000CF900895F12CAFCF5D91252F30E090E0CF
:1038A000BC016C507C4FF901EE0FFF1FE65AFE4F32
:1038B0000081FB010183220F331FF901E55AFE4FFE
:1038C0002081FB012187518B880F991FFC01EC504F
:1038D000FC4F128E118E4F5FC9CFCF93C82F8091AE
:1038E0006D028C1323C09091A604937020916E02F8
:1038F00030E081E09217130609F480E08170809334
:103900006C028091AB0490916B02981739F0809310
:103910006B0240E060E080E00E94D31BC23188F47B
:10392000EC2FF0E0EE59F14D0C94A62D81E0E6CF9E
:1039300080916C02882359F040E060E080E00E94B2
:10394000D31B80E004C08AE692E00E949B1A90910B
:103950006A029F5F90936A0281110CC082E080939B
:10396000690280916C02811105C0C11103C083E01E
:1039700080936902CF9108958AE692E00E94D51A59
:10398000E6CF8AE692E00E942318E1CF8AE692E031
:103990000E94DD18DCCF8AE692E00E94E218D7CFC1
:1039A0008AE692E00E94E718D2CF8AE692E00E946F
:1039B0002818CDCF8AE692E00E948918C8CF8AE6FF
:1039C00092E00E942D18C3CF8AE692E00E9443192C
:1039D000BECF8AE692E00E94761BB9CF8AE692E0DB
:1039E0000E94BC19B4CF8AE692E00E94C119AFCF01
:1039F0008AE692E00E946D1AAACF8AE692E00E94BF
:103A00007A1AA5CF8AE692E00E94871AA0CF8AE6AA
:103A100092E00E94941A9BCF81E0089581E008957E
:103A20000E940E1D0895FC01808192E1899F802DE6
:103A30001124682F883508F067E582510E94101D17
:103A400008954F925F926F927F928F929F92AF9262
:103A5000BF92CF92DF92EF92FF92CF9360911D04BD
:103A600070911E0480911F04909120040E943A26B8
:103A70006B017C010E941F264B015C0180921D049A
:103A800090921E04A0921F04B0922004A091F4030F
:103A9000E4EFF3E08A2F90E04FEF5FEF60E070E03B
:103AA0004C195D096E097F09A9132AC08093F4039C
:103AB00080912104C0E0811108C08091A604C82F24
:103AC000C37019F0C82FC695C695809169028130E0
:103AD00009F440C0882339F1823009F447C08330AB
:103AE00009F44FC0CF91FF90EF90DF90CF90BF903F
:103AF000AF909F908F907F906F905F904F900895C0
:103B0000218D328D2901712C612C441555056605D6
:103B1000770520F481509F5F3296C6CF2C0D3D1D56
:103B2000328F218FF8CF10926A028092AC0490926B
:103B3000AD04A092AE04B092AF0489E2E4EFF3E0EA
:103B4000A0EBB4E001900D928A95E1F781E08093BB
:103B50006902C8CF8C2F0E946D1CCC2319F20E94E1
:103B600026038AE692E00E94131DBCCFC0936D022B
:103B70008091A604837080936E020E94A91783E04F
:103B8000E6CF8091F30381110E9466176091AC0427
:103B90007091AD048091AE049091AF040E943A26DA
:103BA000603171058105910508F49CCF109269027E
:103BB00099CFE0910C03F0910D0309951092B00498
:103BC0008FEF9FEF9093CA048093C9049093CC0425
:103BD0008093CB049093CE048093CD049093D00433
:103BE0008093CF049093D2048093D1049093D40413
:103BF0008093D3049093D6048093D5049093D804F3
:103C00008093D7041092F40390930E0480930D04D4
:103C10009093100480930F049093120480931104E6
:103C200090931404809313049093160480931504C6
:103C3000909318048093170490931A0480931904A6
:103C400090931C0480931B040E94530D811104C0A7
:103C50000E94E20D0E94741781E08093F30346E016
:103C600050E06CE170E086EA94E00E94022E10922F
:103C7000F3038091A6048C7F11F40E9474170895B9
:103C8000CF93C82F882391F08091210481110EC019
:103C90000E946D1C10926D028091A6048370809327
:103CA0006E020E94A91783E080936902C0932104E9
:103CB000CF910895E6EAF4E0908121E09227908385
:103CC000109269020E94EC16089581E00E945A1E2B
:103CD00008959091A604937051F0811109C09460E9
:103CE0009093A60410926902862F0E94EC16089504
:103CF000823110F09464F4CF282F220F220F922BE0
:103D0000EFCF61E00E94691E0895682F9091A6048C
:103D10009695969581E0890F823108F081E00E94A6
:103D2000691E089581E00E94851E0895682F909174
:103D3000A604969596958FEF890F09F481E10E946C
:103D4000691E089581E00E94961E08959091A60430
:103D5000937061F08093A7046093A804493C08F035
:103D600048EC4093A904822F0E94EC160895A6EA1D
:103D7000B4E01196EC911197F0E0282F13964C9136
:103D8000139712966C91CF0108960E94A61E089573
:103D900081E00E94B71E0895E6EAF4E09181282FA1
:103DA00043816281E92FE850FF0BCF010E94A61EDC
:103DB000089581E00E94CC1E0895E6EAF4E0628155
:103DC00020E1620F08F46FEF9181282F4381892F42
:103DD00090E00E94A61E089581E00E94DD1E0895D5
:103DE000E6EAF4E0628120E1621B08F460E0918180
:103DF000282F4381892F90E00E94A61E089581E01C
:103E00000E94F01E0895E6EAF4E0438120E1420FAB
:103E100008F44FEF9181282F6281892F90E00E9452
:103E2000A61E089581E00E94031F0895E6EAF4E0CB
:103E3000438120E1421B08F440E09181282F6281F8
:103E4000892F90E00E94A61E089581E00E94161F0F
:103E50000895E6EAF4E0248130E1230F08F42FEF1F
:103E600024830E94EC16089581E00E94291F089582
:103E7000E6EAF4E0248130E1231B08F420E0248307
:103E80000E94EC16089581E00E94381F089560E0BA
:103E900084E70E94082161E086E70E94082162E031
:103EA00085E70E9408210895CF930E94542384E758
:103EB0000E94AA1F86E70E94AA1F85E70E94AA1FE8
:103EC000C0E021E041E061E08C2F0E945220CF5FF2
:103ED000C735B9F760E084E70E941D2161E086E7FD
:103EE0000E941D2162E085E70E941D21CF91089567
:103EF000E9E8F6E06083418324E630E042E050E008
:103F0000BF01880F0E94F42308950F931F93CF934E
:103F1000DF93082F000FEB0114E210938906EAE803
:103F2000F6E0DE018D91819386E0EA39F807D1F75A
:103F300024E630E041E150E069E876E0802F0E941D
:103F4000F423105F6096143B41F7DF91CF911F91EE
:103F50000F910895CF93DF93C82F4BE06DEF0E9430
:103F6000781F40E06AE08C2F0E94781F8FE39CE965
:103F70000197F1F700C0000040E060E08C2F0E9444
:103F8000781F40E061E08C2F0E94781F40E066E0DF
:103F90008C2F0E94781F40E06DEF8C2F0E94781FBD
:103FA000D0E040E06D2F8C2F0E94781FDF5FD23170
:103FB000C1F740E06D2F8C2F0E94781FDF5FD43255
:103FC000C1F740E06D2F8C2F0E94781FDF5FD43B3C
:103FD000C1F74BE06DEF8C2F0E94781F41E06AE043
:103FE0008C2F0E94781F40E06DEF8C2F0E94781F6D
:103FF000DF91CF910895A4E0B0E0E1E0F0E20C940D
:10400000B92DF62E042F122F8735910570F5880FE4
:10401000991F880F991FBC0164557F4F44E050E001
:10402000CE0101960E94E32D89818370EA81282FB9
:1040300030E040E9849FC001112487529B4FE80F74
:10404000F92FF11DB497F082EB81E80FF92FF11DE4
:10405000B4970083EC81E80FF92FF11DB49710831A
:10406000255A3B4F81E0F90180832496E5E00C94CA
:10407000D52DFF920F931F93CF93DF93182F062F09
:10408000F42ED0E0C0E02F2D402F612FCE010E94F2
:10409000FB1F2196C735D105B1F7CDB7DEB7E5E0F7
:1040A0000C94D52DA4E0B0E0E8E5F0E20C94B12D3D
:1040B000762EA42EB22E24E0829FB00111246455E6
:1040C0007F4F44E050E0CE0101960E94E32D8A81AB
:1040D00090E06C0154E2C51AD1089601D7FE02C0E7
:1040E000295F3F4F63E0359527956A95E1F74B814E
:1040F00050E0CA0184977C0197FF04C07A016DE10A
:10410000E61AF10853E0F594E7945A95E1F74C81EB
:1041100050E04A01E4E28E1A9108840197FE02C041
:10412000095F1F4F43E0159507954A95E1F7E8E0D1
:10413000F0E0BF010E94512D482FC401BF010E9431
:10414000512D982EC601BF010E94512D61E070E0F3
:10415000FB0102C0EE0FFF1F8A95E2F7CF01E98154
:1041600033279E2F9370772009F440C0F2E19F9F80
:10417000200D311D1124D901AB5DBB4F9C91892BC2
:104180008C93E3708E2F90E062E1E69FF0011124A2
:10419000EB5DFB4FEE0DF11D508121E030E001C0E1
:1041A000220F4A95EAF7AA2069F1252B208322E104
:1041B000289FF001299FF00D1124EB5DFB4FE00FCC
:1041C000F11D408121E030E0092C01C0220F0A944A
:1041D000EAF7BB20D1F0242B20838E5D9B4F21E09A
:1041E000FC0120832496EDE00C94CD2D52E1959FA7
:1041F000200D311D1124D901AB5DBB4F80959C91E1
:104200008923BECF20952523D1CF20952423E4CF29
:10421000CF93DF93C62FD0E0C55ADB4F9881992307
:1042200041F090E9699FB001112467527B4F0E94D1
:10423000851F1882DF91CF910895EF92FF920F931F
:104240001F93CF93DF93E82E062F10E00E5D1B4FD8
:10425000F8018081882381F0F2E16F9FE001112451
:10426000CB5DDB4FF12C49916F2D8E2D0E94781F75
:10427000F39482E1F812F7CFF8011082CDB7DEB7E0
:10428000E6E00C94D42DFA01811101C0FB010995DF
:1042900008951F93CF93DF93EC01FB01128111115D
:1042A00010C00E94650C8272FE01E052F847E531B1
:1042B000F10508F049C0EC58F14D0C94A62D0E9470
:1042C000651E812FDF91CF911F91089542EA5EE133
:1042D00062E97EE10E944321F4CF42E95EE162EAB5
:1042E0007EE1F8CF49ED5EE168EC7EE1F3CF48EC8A
:1042F0005EE169ED7EE1EECF4FEF5EE16CEE7EE1D7
:10430000E9CF4CEE5EE16FEF7EE1E4CF45E25FE1A5
:1043100062E17FE1DFCF42E15FE165E27FE1DACF99
:1043200043E45FE164E37FE1D5CF44E35FE163E42D
:104330007FE1D0CF81E00E94811EC3CF82E0FBCF1E
:1043400085E0F9CF88E0F7CF11E0BBCFCF93DF93C3
:10435000EC01FB018281882309F4D2C09E01305711
:104360002332310508F0B2C00E94680D90938D048D
:1043700080938C04FE01E150F047E232F10520F415
:10438000E757F14D0C94A62D80918C0481608093A9
:104390008C0493C080918D04886080938D048DC0BF
:1043A00080918C048260F3CF80918C048460EFCF85
:1043B00080918C048860EBCF80918D048160EDCF7B
:1043C00080918D048260E9CF80918C048061DFCF81
:1043D00080918C048062DBCF80918C048064D7CF85
:1043E0000E94BE0780918C048068D1CF80918C049C
:1043F0008C60CDCF80918D048360CFCF80918C0471
:104400008E7FC5CF80918D04877FC7CF80918C042C
:104410008D7FBDCF80918C048B7FB9CF80918C0430
:10442000877FB5CF80918D048E7FB7CF80918D042B
:104430008D7FB3CF80918C048F7EA9CF80918C0427
:104440008F7DA5CF80918C048F7BA1CF0E94BE076A
:1044500080918C048F779BCF80918C04837F97CF42
:1044600080918D048C7F99CF80918C0482FB992759
:1044700090F921E0922790FB82F990FB83F987CF96
:1044800080918D04982F909591708E7F892B90FB51
:1044900081F983CF90918C04892F8F7B96FF806464
:1044A00076CF0E94BE0790918C04892F97FB87F9E5
:1044B00080586DCF81E00E94E50D80918C04909131
:1044C0008D040E946D0D0E94BE0780E0DF91CF91A8
:1044D000089580E0F0CF90918C04892F8F7E94FF17
:1044E000806155CF90918C04892F8E7F90FF8160E1
:1044F0004ECF90918D04892F877F93FF88604DCF99
:1045000081E0E4CFCF93DF93EB0186319C4711F537
:104510000E94650C9A81992399F08A7A91E009F4B6
:1045200090E090935E04811109C089E20E943D0CE5
:104530000E94A60C80E0DF91CF91089585E3F6CF2D
:1045400080915E04811104C089E20E94450CF0CF85
:1045500085E3FBCF81E0EFCF0F931F93CF93DF93E2
:10456000C42FD22FFC0182818823C9F040936104BB
:104570000E9413269093600480935F0480E28C0F66
:10458000883040F4C77081E001C0880FCA95EAF70F
:104590000E945405DF91CF911F910F9108951091C2
:1045A0006104141332C080915F04909160040E94F2
:1045B0002B26883C910548F5C0E2CD0F1D17B9F0B8
:1045C00080E2810F883040F4177081E001C0880FCD
:1045D0001A95EAF70E945B05C83048F481E09D2FE8
:1045E000977001C0880F9A95EAF70E945405802FB2
:1045F0000E944B05C83070F6D77081E001C0880F6B
:10460000DA95EAF70E945B05C5CF80E28C0F88300F
:1046100008F6C77081E001C0880FCA95EAF7F2CFAB
:104620000F93DB0188519C4787309105A0F5FC0171
:10463000E555F14D0C94A62D06E221EE41EE6AE11E
:104640007CE7CD010E94AC2280E00F91089507E243
:1046500025EE45EE6BE17CE7F4CF06E221EE40EE7D
:1046600068E17CE7EECF07E225EE44EE69E17CE706
:10467000E8CF06E221EE42EE6CE17CE7E2CF07E212
:1046800025EE46EE6DE17CE7DCCF08E221E045EE69
:104690006EE17CE7D6CF12968C91882319F01092A8
:1046A0006104D3CF81E0D1CF1092B9008CE0809328
:1046B000B8000895B0E0A0E0E0E6F3E20C94B32D7A
:1046C000B82EEB010E9413266C01EE24E394F12C2A
:1046D000C431D10560F025E0E22EF12CCF3FDC079C
:1046E00031F0CE0164E170E00E943D2D7B0184EA4F
:1046F000A82E94E8992E1092BC00A092BC000E94B3
:1047000013268C018091BC0087FF0DC08091B900F9
:10471000887F8830F9F08091B900887F8031D1F0AE
:104720000FEF1FEF08C0C8010E942B26E816F906FC
:1047300048F70EEF1FEFCF3FDC07E9F2C6010E94FA
:104740002B26C817D907B8F6C801CDB7DEB7EBE0FE
:104750000C94CF2DB092BB009092BC000E94132607
:104760008C018091BC0087FF0AC08091B900887FCE
:10477000883111F08034A1F610E000E0E5CFC801E7
:104780000E942B26E816F90660F7D3CF0F931F93EC
:10479000CF93DF93EB018093BB0084E88093BC0050
:1047A0000E9413268C018091BC0087FF11C02091CC
:1047B000B900287F81E090E0283211F490E080E099
:1047C000919581959109DF91CF911F910F91089556
:1047D000CF3FDC0741F3C8010E942B26C817D90739
:1047E00010F78EEF9FEFEFCFB0E0A0E0EAEFF3E23B
:1047F0000C94B62D6B018A017901B9010E945A23EC
:10480000E6010C0D1D1DC017D10711F097FF08C060
:1048100024E92093BC00CDB7DEB7E8E00C94D22D9C
:10482000B70189910E94C623EECF90931503809320
:104830001403089590936704809366040895E091AB
:104840006604F0916704309729F00190F081E02D23
:104850000995089580E008950E941F240895E0912D
:104860006604F0916704309799F020917902222331
:1048700059F020918C0427FF07C0DC012C91119680
:104880002C93119726E02C930280F381E02D09955B
:104890000895E0916604F0916704309739F022E0C2
:1048A000DC012C930480F581E02D09950895A3E0A7
:1048B000B0E0EDE5F4E20C94BC2D2091640430915D
:1048C000650428173907A1F0909365048093640468
:1048D000E0916604F0916704309751F023E029835A
:1048E0009B838A830680F781E02DCE01019609958E
:1048F0002396E2E00C94D82DA3E0B0E0E2E8F4E2E5
:104900000C94BC2D20916204309163042817390760
:10491000A1F09093630480936204E0916604F091A7
:104920006704309751F024E029839B838A830680B3
:10493000F781E02DCE01019609952396E2E00C94D3
:10494000D82DFC01329680917902882321F0809144
:104950008C049EE187FF96E080E0915008F4089572
:1049600021912223D1F38F5FF8CF662301F12091AB
:1049700079022223F1F020918C0427FF1AC0462FE0
:104980004695469546954E3190F4677021E030E0AB
:1049900002C0220F331F6A95E2F7840F911DFC01BC
:1049A000828190E02823392381E0232B69F480E081
:1049B0000895FC01329608962191261721F0E817F8
:1049C000F907D1F7F4CF81E008959C01FC013296FC
:1049D0009FEF80E04191461751F09F3F19F441113C
:1049E00001C0982F8F5F8630A9F79F3F09F4089583
:1049F000290F311D97FD3A95F90162830895FC0155
:104A0000329608962191261303C0DF0111971C925C
:104A1000E817F907B9F70895E62FE695E695E695C4
:104A2000EE3168F4E80FF92FF11D677021E030E0F6
:104A300001C0220F6A95EAF78281822B8283089552
:104A4000E62FE695E695E695EE3170F4E80FF92F3E
:104A5000F11D677021E030E001C0220F6A95EAF78E
:104A60002095828128232283089520917902222390
:104A700039F020918C0427FF03C00E940C25089573
:104A80000E94E524089520917902222339F0209193
:104A90008C0427FF03C00E94202508950E94FF2454
:104AA0000895FC01329680917902882351F080911B
:104AB0008C0487FF06C08EE1DF011D928A95E9F71D
:104AC000089586E0F9CF46E050E00E94EC2D21E009
:104AD000892B09F420E0822F089508950E946D2506
:104AE0000895811106C081E0809368040E946E25BC
:104AF000089582E0F9CF83E0809368040E946E25D8
:104B000008950E947125089581E0809368040E94B1
:104B10006E2508950E9484250895089508950E94A1
:104B20008E250895089508950E948D250895CF93A8
:104B30000E9492250E94FA110E949325C0E08C2FBA
:104B40000E942B11892B31F4CF5FC630C1F780E072
:104B5000CF91089581E0FCCF85B7806885BF85B788
:104B6000806885BF08951F921FB61F9211248F93EE
:104B70009F93AF93BF9380916904811113C080917B
:104B80009D0690919E06A0919F06B091A006419629
:104B9000A11DB11D80939D0690939E06A0939F0634
:104BA000B093A006BF91AF919F918F911F901FBEB0
:104BB0001F9018958091A506843031F10E941D0444
:104BC0001092690488E190E020E40FB6F894A8956B
:104BD000809360000FBE2093600083B7817F846064
:104BE00083BF83B7816083BF7894889583B78E7FB6
:104BF00083BF0FB6F894A895809160008861809378
:104C00006000109260000FBE08950E94BE070E94CF
:104C10002704089582E084BD93E095BD9AEF97BD87
:104C200080936E0008952FB7F89480919D0690911F
:104C30009E06A0919F06B091A0062FBF08952FB7A2
:104C4000F89460919D0670919E0680919F069091C8
:104C5000A0062FBF08959C014FB7F89480919D0640
:104C600090919E06A0919F06B091A0064FBF821B17
:104C7000930B0895CF92DF92EF92FF922FB7F894A3
:104C8000C0909D06D0909E06E0909F06F090A006F2
:104C90002FBFA7019601261B370B480B590BCA01E2
:104CA000B901FF90EF90DF90CF90089578941F9214
:104CB0001FB61F9211248F939F93AF93BF93809140
:104CC0009D0690919E06A0919F06B091A006019628
:104CD000A11DB11D80939D0690939E06A0939F06F3
:104CE000B093A006BF91AF919F918F911F901FBE6F
:104CF0001F90189581E08093E00080E28093D800B7
:104D00001092C9008FE19EE40197F1F700C0000006
:104D100087E090EBDC018093AE069093AF06A09302
:104D2000B006B093B10688E19CE00FB6F894A89560
:104D3000809360000FBE90936000FFCF88E19CE0FD
:104D40000FB6F894A895809360000FBE9093600012
:104D5000FFCF80918A0408959B01BA019091A50626
:104D60009430E9F48F708093E9009FEF8091E80020
:104D7000915085FD06C085ED8A95F1F700009111EF
:104D8000F5CF8091E80085FF0AC050E040E0C901FE
:104D90000E94B6288091E8008E778093E8000895FD
:104DA00043E050E0BC0182E00E94AC26089546E05A
:104DB00050E0BC0182E00E94AC260895CF93DF93BF
:104DC000EC0180917902811111C048E050E0BE01F0
:104DD00081E00E94AC2680E2FE01AAE6B4E00190E8
:104DE0000D928A95E1F7DF91CF91089580918C041F
:104DF00087FF05C040E282E050E0BE01EACF48E014
:104E000081E0FACF8091A406811109C00E94462A50
:104E10000E94A32A8091E20084608093E2000895BA
:104E20001092A40608950E94842508956091A10619
:104E300081E0611101C080E00E947B25089590917E
:104E4000A50681E0943009F080E06091A1060E94FF
:104E50008125089542E061EC81E00E94C22942E28E
:104E600061EC82E00E94C2299091A50681E0943015
:104E700009F080E06091A1060E947125089580915B
:104E8000A706833009F461C030F48130D1F182305B
:104E900009F49EC008958A3009F48AC08B3009F461
:104EA0006FC0893009F050C08091A606813209F0A8
:104EB0004BC08091AA069091AB06029708F044C0BF
:104EC0008091E800877F8093E8008091E80082FF6E
:104ED00037C09091F3008091F200029731F48091F5
:104EE000F100813011F0863021F48091F10080933F
:104EF0008A048091E8008B778093E8000E94F6296D
:104F000023C08091A606813AF9F48091E800877F5A
:104F10008093E8008091AA069091AB06892B61F4FA
:104F200060E28AE694E070E00E9405298091E80042
:104F30008B778093E800089560E090E080E0F3CF05
:104F40008091A5068111C1CF08958091A606813A6E
:104F5000D9F78091AA069091AB06892BA9F7809189
:104F6000E800877F8093E8008091E80080FFFCCF15
:104F7000809179028093F1008091E8008E77BCCF18
:104F80008091A606813201F78091AA069091AB0626
:104F9000892BD1F68091E800877F8093E8000E94FA
:104FA000F6298091A806809379020E94BE07089591
:104FB0008091A606813241F68091E800877F809338
:104FC000E8000E94F6298091A90680938B04089539
:104FD0008091A606813A09F0B7CF8091E800877FDB
:104FE0008093E8008091E80080FFFCCF80918B04E3
:104FF000C1CF84B7877F84BF0FB6F894A8958091FE
:105000006000886180936000109260000FBE80E8AD
:1050100090E00FB6F89480936100909361000FBE0A
:105020000E948A2508950E94462A0E94A32AE2EE41
:10503000F0E080818460808378940E94222D08951E
:1050400081E792E00E941A2408958091A506853098
:1050500031F48091A506853019F00E940526089547
:105060000E94DA258091A306882399F30E94972550
:10507000882379F30E94A0280E94BE07EACF0895F2
:105080009A014091AC065091AD060E9448280895BF
:10509000492F55274330510519F168F44130510526
:1050A00009F444C04230510509F445C090E080E065
:1050B00050E040E025C04132510549F142325105EE
:1050C000A9F780E490E047E955E061157105C1F06A
:1050D00086EB90E041EE54E06130710589F0E6CF57
:1050E00099278130910581F0009729F00297F1F618
:1050F000E0E7F4E002C0E0E9F4E0849190E0AF0181
:10510000F901518340830895E0E8F4E0F6CF89E0A7
:1051100090E046EA54E06115710591F389E090E072
:105120004FEB54E06130710559F3C0CF82E190E05C
:105130004FEC54E0E5CF8BE390E044E954E0E0CF5E
:1051400080E189BD82E189BD09B400FEFDCF809177
:10515000D8008F7D8093D8008091E000826080939A
:10516000E0008091E00081FDFCCF0895AF92BF92F6
:10517000CF92DF92FF920F931F93CF93DF936C0137
:10518000EB018A010E94152AF82E811123C0011516
:10519000110539F0F80180819181C81BD90BC80E27
:1051A000D91EB12CA12C2097A9F08091E80085FD93
:1051B00022C08091E8008E778093E80001151105E8
:1051C000A1F0F80180819181A80EB91EB182A08260
:1051D00085E0F82E8F2DDF91CF911F910F91FF90D9
:1051E000DF90CF90BF90AF9008950E94152A88233A
:1051F000D1F2F82EEFCFF60181916F018093F1008B
:105200002197FFEFAF1ABF0ACECFFC018091AC0609
:105210009091AD0686179707A0F06115710529F4E6
:105220009091E8009E779093E80090E061157105F9
:1052300051F4911108C08091E80082FF34C080E0F1
:105240000895BC01F2CF8091A5068823C1F1853075
:10525000C1F18091E80083FD30C08091E80082FDBB
:10526000EACF8091E80080FFE1CF8091F3002091A8
:10527000F200382F6115710519F02830310558F00A
:1052800091E02830310509F090E02091E8002E7778
:105290002093E800CBCF81918093F1006150710998
:1052A0002F5F3F4FE7CF8091A506882341F08530DF
:1052B00041F08091E80083FFBECF81E0089582E055
:1052C000089583E00895FC018091AC069091AD06AD
:1052D00086179707A0F06115710529F48091E80001
:1052E0008E778093E80090E06115710551F491117B
:1052F00008C08091E80082FF35C080E00895BC01BD
:10530000F2CF8091A5068823C9F18530C9F180913B
:10531000E80083FD31C08091E80082FDEACF8091F2
:10532000E80080FFE1CF8091F3002091F200382F58
:105330006115710519F02830310558F091E02830D9
:10534000310509F090E08091E8008E778093E800C5
:10535000CBCF84918093F1003196615071092F5F1A
:105360003F4FE6CF8091A506882341F0853041F07C
:105370008091E80083FFBDCF81E0089582E0089529
:1053800083E00895982F973028F08F708093E9007C
:1053900081E008959093E900242F762F50E098172C
:1053A00031F07091EC002091ED005091F00021FD62
:1053B00002C09F5FE8CF3091EB003E7F3093EB005F
:1053C0003091ED003D7F3093ED003091EB00316086
:1053D0003093EB007093EC002093ED005093F000BD
:1053E0002091EE0027FDE5CF80E008958091A6068C
:1053F00087FF13C08091E80082FF06C08091E8001B
:105400008B778093E80004C08091A5068111F2CFCC
:1054100008958091A5068823D9F38091E80080FF44
:10542000F8CF8091E8008E77ECCF2091E4003091A6
:10543000E50095E6A9012091EC00822F817020FF04
:1054400006C08091E80080FF06C080E008952091AA
:10545000E80022FD1AC08091A506882389F08530D6
:1054600089F08091EB0085FD0FC02091E400309120
:10547000E50042175307F9F29150E1F684E00895F0
:1054800082E0089583E0089581E008950E94B52A9E
:105490000E94BD2AE0EEF0E0808181608083E8ED2B
:1054A000F0E080818F77808319BCA7EDB0E08C910C
:1054B0008E7F8C9380818F7E80831092A4060895C6
:1054C0000F931F93CF93DF930E94B52A0E94BD2AAA
:1054D000C8EDD0E088818F77888388818068888351
:1054E00088818F7D888319BC1092A5061092A10631
:1054F0001092A3061092A20600EE10E0F80180813F
:105500008B7F808388818160888342E060E080E0D7
:105510000E94C229E1EEF0E080818E7F8083E2EE7E
:10552000F0E0808181608083808188608083F801E1
:1055300080818E7F8083888180618883DF91CF9195
:105540001F910F910895E8EDF0E080818F7E8083B8
:10555000E7EDF0E080818160808384E082BF81E0BC
:105560008093A4060E94602A0895E8EDF0E080810F
:105570008E7F80831092E20008951092DA001092DC
:10558000E10008951F920F920FB60F9211242F93EE
:105590003F934F935F936F937F938F939F93AF93BB
:1055A000BF93EF93FF938091E10082FF0BC0809146
:1055B000E20082FF07C08091E1008B7F8093E100D1
:1055C0000E94212D8091DA0080FF19C08091D800BF
:1055D00080FF15C08091DA008E7F8093DA00809181
:1055E000D90080FF96C080E189BD82E189BD09B400
:1055F00000FEFDCF81E08093A5060E9402278091E6
:10560000E10080FF19C08091E20080FF15C0809109
:10561000E2008E7F8093E2008091E20080618093BF
:10562000E2008091D80080628093D80019BC85E0A8
:105630008093A5060E9416278091E10084FF2BC06D
:105640008091E20084FF27C080E189BD82E189BDAD
:1056500089B5982F917080FFFBCF8091D8008F7D06
:105660008093D8008091E1008F7E8093E10080914B
:10567000E2008F7E8093E2008091E200816080935F
:10568000E2008091A106882309F449C084E0809358
:10569000A5060E941F278091E10083FF29C0809109
:1056A000E20083FF25C08091E100877F8093E100C5
:1056B00082E08093A5061092A1068091E1008E7F82
:1056C0008093E1008091E2008E7F8093E2008091E0
:1056D000E20080618093E20042E060E080E00E94AE
:1056E000C2298091F00088608093F0000E94132707
:1056F000FF91EF91BF91AF919F918F917F916F91AA
:105700005F914F913F912F910F900FBE0F901F907F
:10571000189519BC1092A5060E94102770CF809191
:10572000E30087FD93E09093A506B3CF1F920F92FD
:105730000FB60F9211242F933F934F935F936F9364
:105740007F938F939F93AF93BF93CF93DF93EF9309
:10575000FF93D091E900DF708091EC00C82FC170F9
:1057600080FDC0E81092E9008091F000877F80936F
:10577000F00078940E94DA2B1092E9008091F000FA
:1057800088608093F000CD2BCF70C093E900FF912B
:10579000EF91DF91CF91BF91AF919F918F917F91C9
:1057A0006F915F914F913F912F910F900FBE0F908E
:1057B0001F901895AAE2B0E0E0EEFBE20C94BB2D3E
:1057C00086EA96E02091F100FC012193CF01F6E0FA
:1057D0008E3A9F07B9F70E943F278091E80083FF28
:1057E0001EC18091A6069091A7069A3008F017C1B5
:1057F000E92FF0E0EE54F14D0C94A62D803899F08D
:10580000823809F00CC18091AA068F70873008F0A9
:1058100006C18093E9008091EB0085FB882780F921
:105820001092E90006C08091A2069091A306911102
:1058300082609091E800977F9093E8008093F10058
:105840001092F1008091E8008E77E5C0882309F47A
:10585000D3C0823009F0E3C08091A8068111D6C080
:105860008091AA068F702FEF280F263008F0D7C03E
:105870008093E9002091EB0020FFC8C0933031F401
:105880008091EB0080628093EB00C0C09091EB00B0
:1058900090619093EB0021E030E001C0220F8A95E7
:1058A000EAF72093EA001092EA008091EB0088600A
:1058B000EACF8111B4C01091A8061F778091E30050
:1058C0008078812B8093E3008091E800877F80932C
:1058D000E8000E94F6298091E80080FFFCCF8091CB
:1058E000E30080688093E30082E0111183E08093FD
:1058F000A50695C08058823008F091C08091A80616
:105900009091A9068C3D23E09207A1F583E08A835C
:105910008AE289834FB7F894DE01139620E03EE0D7
:1059200051E2E32FF0E050935700E49120FF03C0D1
:10593000E295EF703F5FEF708E2F90E0EA30C0F09D
:10594000C7968D939D932F5F243159F74FBF809158
:10595000E800877F8093E8006AE270E0CE0101965C
:105960000E9405298091E8008B778093E80057C05A
:10597000C096E7CF6091AA067091AB06AE014F5F6B
:105980005F4F0E944028BC01892B09F448C09091C8
:10599000E800977F9093E80089819A810E946329AB
:1059A000E1CF8038E1F58091E800877F8093E800BF
:1059B0008091A1068093F10045CF811130C0909174
:1059C000A806923060F58091E800877F8093E80018
:1059D0009093A1060E94F6298091A106882311F0D8
:1059E00084E005C08091E30087FDFACF81E08093D9
:1059F000A5060E942A2713C08091A806813079F459
:105A000081E0933009F080E08093A3061092E900D2
:105A10008091E800877F8093E8000E94F6298091BA
:105A2000E80083FF0AC08091E800877F8093E80048
:105A30008091EB0080628093EB00AA96E3E00C94E7
:105A4000D72D0895CF938091A5068823A1F0C0910A
:105A5000E900CF709091EC00892F817090FD80E873
:105A6000C82B1092E9008091E80083FD0E94DA2B98
:105A7000CF70C093E900CF910895AA1BBB1B51E1E1
:105A800007C0AA1FBB1FA617B70710F0A61BB70BAE
:105A9000881F991F5A95A9F780959095BC01CD0153
:105AA000089597FB072E16F4009407D077FD09D0D0
:105AB0000E943D2D07FC05D03EF4909581959F4FA7
:105AC0000895709561957F4F0895A1E21A2EAA1B43
:105AD000BB1BFD010DC0AA1FBB1FEE1FFF1FA2179E
